S018000062745F736F635F656D7074795F4D4732342E7333377B
S31508012000C00A002019280108DFF70208DFF70208CD
S31508012010B90A0308DFF70208DFF70208DFF7020843
S31508012020DFF70208DFF70208DFF70208DFF7020821
S31508012030DFF7020890A903083BF60208DFF7020852
S31508012040DFF70208DFF70208DFF70208DFF7020801
S31508012050DFF70208DFF70208DFF70208DFF70208F1
S31508012060DFF70208DFF70208DFF70208DFF70208E1
S31508012070DFF70208DFF70208DFF70208DFF70208D1
S31508012080DFF70208DFF70208DFF70208DFF70208C1
S31508012090DFF70208DFF70208DFF70208DFF70208B1
S315080120A0DFF70208DFF70208DFF70208DFF70208A1
S315080120B0DFF702084DE4020869EE0208CBA503081A
S315080120C0C7A5030835E60208D7A50308CFA503085F
S315080120D041EE0208D3A50308A9EE02080DEF02088E
S315080120E0DFF70208DFF70208DFF70208DFF7020861
S315080120F0B50A0308DFF70208DFF70208DFF7020867
S31508012100DFF70208DFF70208DFF70208DFF7020840
S31508012110DFF70208DFF70208DFF70208DFF7020830
S31508012120DFF70208DFF70208DFF70208DFF7020820
S31508012130DFF70208DFF70208DFF70208DFF7020810
S31508012140DFF70208DFF70208DFF70208D90B0308F1
S315080121502DCD0208DFF702086FA2030875A203084E
S31508012160DFF70208DFF70208DFF70208DFF70208E0
S31508012170013800D0FCE77047002370B5404C05468E
S315080121808AB0E36318B1008823600BF01DFD3D4852
S3150801219027F085FD3C4E3D4B304633603C4B736022
S315080121A022F0F4FB0021304616F06AF932A3D3E98E
S315080121B00023A062C4E9062322F0F3FBD4E906232F
S315080121C0194310434FF0FF33C4E90601CDE9000175
S315080121D04FF0FF32A06A27F0AFFD02224FF0FF3120
S315080121E0A06A27F0AEFD01200BF078FA4FF40073D0
S315080121F000222849A06A27F0FAFDB0F5007F38D1F8
S3150801220000239422CDE9073309933C23CDE9033210
S3150801221005939623A06A03A9069316F04DFA35B3DA
S31508012220287C0BF08FFE0546F0B9A06A27F0C0FEA0
S315080122300BF030FE0BF034FA20B14FF48070002118
S3150801224009F008F80BF03CFA20B14FF400600021C0
S3150801225009F000F822F069FB012016F065F90E4A2B
S315080122600E49A06A22F090FB28460AB070BDFF20ED
S31508012270D7E70725F8E700BF0DD50155200000006F
S31508012280180F0020690345EC202000206DD50108B0
S3150801229014200020141E002031490308714903083F
S315080122A010B5054C237833B9044B13B1044800E043
S315080122B000BF0123237010BD781100200000000023
S315080122C09801040808B5034B1BB10349034800E00C
S315080122D000BF08BD000000007C1100209801040819
S315080122E0A3F5803A704700BF174B002B08BF134B65
S315080122F09D46FFF7F5FF00218B460F461348144A02
S31508012300121A28F0B5F90E4B002B00D098470D4B41
S31508012310002B00D098470020002104000D000D482D
S31508012320002802D00C4800E000BF1DF013F8200079
S31508012330290000F073F81CF0F9FF00BF000008003F
S315080123400000000000000000C00A0020A80E0020BE
S315080123508826002000000000000000001FB50021AB
S315080123600368274A23F47F4323F007039342ADF812
S315080123700C10ADF80E1004D0224A934231D004B0A5
S3150801238010BD08460DF10E0303AA0EF0DFFB00B1DE
S31508012390FEE71D4C20460EF021FB00B1FEE70221A7
S315080123A020780EF06BFB034600B1FEE74FF4486256
S315080123B00090114620780EF029FB00B1FEE7134B79
S315080123C040F2FF220193124B06211B781148009314
S315080123D0114B1B781DF0F3F821780E481DF01BF9F7
S315080123E0CDE7094C022120780EF048FB00B1FEE743
S315080123F0022120780EF056FB0028C0D0FEE700BF68
S31508012400A0000100A0000601D60C002020A70308A1
S31508012410D70C00205B2500205A25002008B51EF0A0
S31508012420FBFB0021012001F0B9FB00201EF054FB43
S3150801243047F6FE72054BC3F808221DF0BDF81EF0DB
S31508012440F8FB1DF0BBF804F06DF8F8E700C007507B
S315080124507FB50368274A23F47F4323F00703934292
S3150801246044D1002108221220234B0EF041FB0146DC
S3150801247000B1FEE703221420204B0EF039FB01467A
S3150801248000B1FEE7052216201D4B0EF031FB00B107
S31508012490FEE70DF1070102A80EF080FB014600B127
S315080124A0FEE79DF80D3008228DF810309DF80C30A6
S315080124B018208DF811309DF80B308DF81230FF2356
S315080124C08DF81330FE238DF814309DF80A308DF8F7
S315080124D015309DF809308DF816309DF808308DF8BD
S315080124E0173004AB0EF004FB00B1FEE707B05DF848
S315080124F004FB00BFA000010035A703083EA7030897
S3150801250042A7030810B5274C01F07EF801F0D0FA6E
S31508012510236F23F0070343F0030323671DF0E1F953
S31508012520214B00209B6ADB015EBF4FF480321F4BB3
S315080125309A62D4F8203123F0070343F00203C4F862
S315080125402031D4F8283123F0070343F00203C4F8F5
S315080125502831D4F8403123F0030343F00203C4F8C9
S315080125604031D4F8603123F0030343F00203C4F881
S315080125706031D4F8403223F0030343F00203C4F870
S315080125804032D4F8003223F0070343F00203C4F8BB
S315080125900032D4F8083223F0070343F00203C4F8E3
S315080125A0083210BD008000500040005A0060005AF1
S315080125B007B501A801F0CCFC9DF80530012B14D113
S315080125C09DF804308BB94FF48012164B1649586E94
S315080125D003F580535A664B6B23F0E05343F040638F
S315080125E04B63C3025CBF114B5A6603F013FC1DF023
S315080125F0C2F803F097FB03F0F7FB1EF059FA03F054
S31508012600B9FB1EF04FFAFFF77DFF03F0A1FB1DF0A2
S31508012610A7F800F0FDF900F0EBFA03B05DF804EB5A
S3150801262003F09ABE008000500040005A00A00050F6
S3150801263037B500240368224A23F47F4323F00703AE
S31508012640934205468DF800408DF801408DF8024009
S315080126508DF803408DF804408DF8054026D002F127
S31508012660827293422AD1B0F805301B2B26D1FF235B
S3150801267002A91A4611E903001DF060F8012814BFE2
S3150801268041F2FC140F4B4FF01B0108BF187004F000
S31508012690FC0228790EF042FA00B1FEE7094B1B78D5
S315080126A063B128790EF012FA40B1FEE7054B1B78A3
S315080126B023B103B0BDE830401EF0C6BA03B030BD41
S315080126C0A00006017C25002007B508201DF097F813
S315080126D002238DF80030054B684601931DF04FF82B
S315080126E0082003B05DF804EB1DF095B8006A1810D0
S315080126F02DE9F043434D89B001AC0FCD0FC495E8E0
S315080127000700012584E8070001213A2000F038FD79
S315080127103D4F0121292000F033FD3C4B384601A9E4
S3150801272003938DF8125001F06BFC2B4629460422BF
S31508012730022001F07FFB02212A460846002301F008
S3150801274079FB2B4604220321022001F073FB0422A4
S315080127502B461146022001F06DFB2D4C2D4B102600
S31508012760C4F834374FF00213C4F83037A3F5803371
S31508012770C4F838371C2304F50059C4F820374FF438
S31508012780487004F0F7FC04F580581420C9F8A060D5
S3150801279004F0F0FC2320C8F8A06004F0EBFCB92192
S315080127A03846C9F8A0601DF03CF9002329461A46A7
S315080127B00220C8F8A06001F03DFB002302211A4659
S315080127C0084601F037FB2B4600220321022001F0BF
S315080127D031FB2B4600220421022001F02BFB38464F
S315080127E001F0ECFB00212920C4F83417C4F830178E
S315080127F0C4F83817C4F8201700F0C2FC09B0BDE8C0
S31508012800F08300BF74A9030800C0055000127A00BE
S3150801281000C003500200030008B500F02DF8124B62
S3150801282012498B4212D30020114B12498B4218D3FD
S31508012830FFF75AFD186850F82240586840F82240B8
S31508012840013298688242F5D30C33EAE70022F8E7A9
S315080128501C6844F8220001325C68A242F8D30833A6
S31508012860E4E70022F8E700BFA0010408AC01040868
S31508012870AC010408AC0104084FF480414FF0FF3065
S31508012880114B124A10B59A60D3F8882042F47002A7
S31508012890C3F888200E4A91660E4901F50052106662
S315080128A00D4850660220C3F8D000BFF34F8FBFF31F
S315080128B06F8F01244FF440330848C0F88041D36034
S315080128C004600B6110BD00BF00ED00E000200108A7
S315080128D00090005000800044F7FF370000E100E057
S315080128E0014B1868704700BFC40A0020084B1B6FCC
S315080128F003F00703022B04D0032B05D0012B05D0C7
S31508012900FEE7044B18687047034BFBE7034870471B
S3150801291000800050C40A0020C80A0020002D310199
S3150801292008B5FFF7E3FF054B1B6FC3F30333013309
S31508012930B0FBF3F0024B186008BD00BF00800050E1
S31508012940C00A00200048704700B4C404014B186847
S31508012950704700BFC80A0020054B1860054B1B6F5E
S3150801296003F00703032B01D1FFF7DABF704700BF56
S31508012970C80A00200080005000487047002D310128
S315080129804FF0B4439868C0F304400C2822D8DFE816
S3150801299000F0092121212121071719211B1D1F00DB
S315080129A00F4870479B6803F04073B3F1807F13D0DB
S315080129B0B3F1007F12D00B4A002B08BF10467047AF
S315080129C009487047094870470948704709487047D8
S315080129D009487047002070470848704708487047FB
S315080129E0405DC60000093D000024F400C0EA21014B
S315080129F080BA8C010048E801005A620280841E00F0
S31508012A0040420F00014B1868704700BFCC0A0020EE
S31508012A104FF000639B6A10B503F17842B2F5903F17
S31508012A200ED21968094A91420AD1094C227812F044
S31508012A30FD0F08D1DB69984708B90123237010BD3A
S31508012A404FF48170FBE70020F9E700BF07B0CD5EC0
S31508012A507D2500204FF00053074A1A60BFF34F8FB8
S31508012A600649074BCA6802F4E0621343CB60BFF319
S31508012A704F8F00BFFDE700BF02020FF000ED00E037
S31508012A800400FA0505490A681318054883428CBFEC
S31508012A904FF0FF320B601046704700BFD00A002086
S31508012AA00000042010B501213A2000F069FB01233A
S31508012AB004220321002001F0BDF900201CF04CFF7F
S31508012AC00122314B3149C3F844244FF40022A3F5BE
S31508012AD050335A66D1F8FC202C4C12F080721EBF76
S31508012AE0D1F8FC3023F08073C1F8FC302849D1F8BD
S31508012AF0803023F0030343F00203C1F880302AB182
S31508012B00D4F8FC3043F08073C4F8FC304FF460709D
S31508012B1000F052FBD4F8F0301E4A43F00103C4F822
S31508012B20F030D4F8FC3000F5D52043F08073C4F8B2
S31508012B30FC30194B00F2FC401A60184B0222B0FB1C
S31508012B40F3F0174B01381861C3F8F0204FF480727F
S31508012B50C3F804234FF06043124A0020C3F8B02F8C
S31508012B60114AC3F8802ED3F8002E42F48072C3F8B6
S31508012B70002EFF2283F82020D3F8002E22F480723B
S31508012B80C3F8002E10BD00BF00D0035000ED00E0D1
S31508012B9000800050FF030040001000E0F8590D00C6
S31508012BA0000004E055CEACC5090001004FF06043B2
S31508012BB0D3F8802E30B5D20715D501240B4D8440A4
S31508012BC0D5F8FC2042F08072C5F8FC20D3F8002E17
S31508012BD02243C3F8002E53F82020002AF0D003F828
S31508012BE02010002030BD1120FCE700BF00ED00E0F9
S31508012BF0024B1968024B186815F056B8D80A002016
S31508012C00D40A002037B5920004460D46019227F0F2
S31508012C107FFD431C0BD060B929462046019A27F04F
S31508012C20F0FC0028044808BF002003B030BD034863
S31508012C30FBE70348F9E700BF10E000F021E000F0E8
S31508012C4024E000F010B5044627F05AFD431C10D0C5
S31508012C5088B901F0A9F9234620F0030020449842D7
S31508012C6001D1002010BD53F8042B0132F7D00348D7
S31508012C70F8E70348F6E70348F4E700BF0EE000F07B
S31508012C8021E000F024E000F008B51CF03FFE014BFE
S31508012C90186008BDD4170020014B18681CF03ABE0D
S31508012CA0D4170020044BD3F88420D206FBD4D3F8DA
S31508012CB08400C0F3811070470040005038B5104BAE
S31508012CC00546D3F880300C4603F00303022B0BD0DC
S31508012CD0032B0DD0012B0FD1FFF708FE0E2305B1EB
S31508012CE0286004B1236038BDFFF74AFE0723F6E7DB
S31508012CF0FFF7F6FD0623F2E700231846EFE700BFC4
S31508012D000080005038B5184B0546D3F820010C460B
S31508012D1000F00700062805D8DFE800F0230B0F1797
S31508012D20131B1F000023184605B1286004B1236050
S31508012D3038BDFFF7D5FD0523F6E7FFF707FE0323A1
S31508012D40F2E7FFF71DFE0723EEE7FFF715FE02235D
S31508012D50EAE7FFF7C5FD0623E6E7FFF7F7FD0423D4
S31508012D60E2E70123E0E700BF0080005038B5174BC2
S31508012D700546D3F828310C4603F00703013B052B1A
S31508012D8020D8DFE803F003131B0F0B17FFF7A8FD85
S31508012D90052305B1286004B1236038BDFFF7A0FDFE
S31508012DA00623F6E7FFF7ECFD0723F2E7FFF7CEFD6B
S31508012DB00323EEE7FFF7CAFD0423EAE7FFF7DCFD85
S31508012DC00223E6E700231846E3E700BF0080005028
S31508012DD073B50D460021114B0191D3F88041064682
S31508012DE004F00304022C13D0032C0CD0012C13D1AC
S31508012DF001A8FFF787FF10240EB1019B336005B1C7
S31508012E002C6002B070BDFFF7BBFD07240190F3E704
S31508012E10FFF7B2FD0190EFE70C46EDE700800050A1
S31508012E20002337B50193164B0546D3F820320C46D5
S31508012E3003F00703042B04D8DFE803F0200B11166F
S31508012E401B0000230DB1019A2A6004B1236003B067
S31508012E5030BD002101A8FFF789FF1223F2E7FFF72A
S31508012E608FFD07230190EDE71CF0BCFC0A230190B6
S31508012E70E8E7FFF7C7FD09230190E3E70123E1E747
S31508012E800080005038B5104B0546D3F840310C4642
S31508012E9003F00303022B0BD0032B0DD0012B0FD10B
S31508012EA01CF0A0FC0A2305B1286004B1236038BDD3
S31508012EB0FFF7A8FD0923F6E71CF097FC0C23F2E7B8
S31508012EC001230020EFE700BF00800050002337B53B
S31508012ED00193164B0546D3F860320C4603F00703F7
S31508012EE0013B032B1FD8DFE803F0020E191400215A
S31508012EF001A8FFF707FF10230DB1019A2A6004B153
S31508012F00236003B030BD002101A8FFF7BBFF1123E1
S31508012F10F2E7FFF735FD07230190EDE7FFF72CFDF3
S31508012F2002230190E8E70023E6E700BF008000508E
S31508012F30002337B50193164B0546D3F894320C4650
S31508012F4003F00703013B032B1FD8DFE803F0020E4A
S31508012F501914002101A8FFF7D5FE10230DB1019A16
S31508012F602A6004B1236003B030BD002101A8FFF730
S31508012F7089FF1123F2E7FFF703FD07230190EDE728
S31508012F80FFF7FAFC02230190E8E70023E6E700BF12
S31508012F900080005038B5144B0546D3F800020C469C
S31508012FA000F00700042804D8DFE800F01B0A0E1217
S31508012FB016000023184605B1286004B1236038BD00
S31508012FC01CF010FC0A23F6E7FFF71CFD0923F2E7BC
S31508012FD01CF00BFC0C23EEE7FFF7A2FC0F23800A7B
S31508012FE0E9E70123E7E700BF0080005038B5144B35
S31508012FF00546D3F808020C4600F00700042804D851
S31508013000DFE800F01B0A0E1216000023184605B168
S31508013010286004B1236038BD1CF0E4FB0A23F6E7F7
S31508013020FFF7F0FC0923F2E71CF0DFFB0C23EEE7C0
S31508013030FFF776FC0F23800AE9E70123E7E700BFDC
S315080130400080005038B5104B0546D3F840320C467F
S3150801305003F00303022B0BD0032B0DD0012B0FD149
S315080130601CF0C0FB0A2305B1286004B1236038BDF2
S31508013070FFF7C8FC0923F6E71CF0B7FB0C23F2E7B8
S3150801308001230020EFE700BF0080005038B5104B40
S315080130900546D3F860310C4603F00303022B0BD027
S315080130A0032B0DD0012B0FD11CF09CFB0A2305B174
S315080130B0286004B1236038BDFFF7A4FC0923F6E7AD
S315080130C01CF093FB0C23F2E701230020EFE700BF76
S315080130D000800050B0F5207F1FD009D8B0F5007FD9
S315080130E015D003D868B1B0F5C07F0AD000200CE02E
S315080130F0B0F5607FFAD10B4BD3F88000C0F301100D
S3150801310003E0084B186FC0F3033001307047054BD5
S31508013110D3F89000C0F30460F7E7024B186FC0F3C9
S315080131208020F2E70080005002464FF48030104BB1
S3150801313010B598660020FFF7CDFF504341F671326E
S315080131400C4BDC69DA635A6804F4803422F44012C1
S3150801315059B9094988428CBF4FF4801000201043A1
S3150801316058600CB10022DA6310BD0449F2E700BFCA
S315080131700090005000000350005A6202002D3101F0
S31508013180430905D0012B0DD0022B094B18BF00238B
S3150801319000F01F0041B103F58053012202FA00F045
S315080131A018607047034BF3E703F50053F5E700BFD3
S315080131B068800050648000501FB5002180280446AD
S315080131C0CDE9001100F0A58035D85E2846D85E28DD
S315080131D044D8DFE800F0A243434343434343434310
S315080131E043434343434343434343434343434343A0
S315080131F0434343434343A2AAA2AAB9B9B9B9B9AA4F
S31508013200C34DD9714DAAAAAA4343434343434343F2
S31508013210AAAAAA79E3AA43434343434343434343FD
S31508013220434343B9A2A2A2DE4D4DE8885EBE43439D
S3150801323043434399A200B0F5B06F00F08F802DD8B3
S31508013240B0F5207F71D00CD8B0F5C07F65D0B0F548
S31508013250007F65D0B0F5807F00F08580009804B0C6
S3150801326010BDB0F5607F6AD00DD8B0F5407FF5D1B5
S31508013270FFF756FB02464FF42070FFF72BFFB2FB10
S31508013280F0F0400847E0B0F5806F5DD0B0F5A06F6B
S31508013290E4D100216846FFF7C3FDDFE7B0F5106FFB
S315080132A077D016D8B0F5E06F78D00AD8B0F5C06FE8
S315080132B06AD0B0F5D06FD1D100216846FFF76AFE12
S315080132C0CCE7B0F5F06FC9D100216846FFF7DEFEFD
S315080132D0C4E7B0F5406F3CD013D8B0F5206F62D083
S315080132E0B0F5286FBAD10021314B0391D3F870326A
S315080132F003F00303012B02D103A8FFF7C3FD039BC8
S315080133003BE0B0F5486FA9D100216846FFF710FEEA
S31508013310A4E7FFF7EBFA0090A0E7FFF701FBFAE74E
S31508013320FFF7E4FA0246204604E0FFF7F9FA0246F7
S315080133304FF42070FFF7CEFEB2FBF0F0EBE701A8E1
S31508013340FFF7BCFC019AEEE700216846FFF7DAFCB5
S3150801335084E700216846FFF709FD7FE700216846F3
S31508013360FFF736FD7AE74FF0E02302911B695B0709
S3150801337005D5FFF7D5FA0290029B00936EE703A9DC
S3150801338002A8FFF77FFDF7E700216846FFF77AFDF8
S3150801339064E700216846FFF729FE5FE700216846D2
S315080133A0FFF750FE5AE700216846FFF78FFD55E7FC
S315080133B00080005008B58020FFF7FEFE034B9842B7
S315080133C09EBF4FF48032024B1A6708BD005A62024B
S315080133D000A000501FB50023B0F5807F019300F0CF
S315080133E0C38064D85D2855D84C2807D82D2847D8D6
S315080133F023282BD8019805B05DF804FB4D38102811
S31508013400F8D801A353F820F05F350108F533010810
S31508013410F5330108F533010811350108F5330108BB
S31508013420F5330108E53501082F350108D5340108BA
S31508013430DB350108F5330108F5330108F5330108D1
S31508013440F5330108F5330108EF3501082438092851
S31508013450D0D801A353F820F05F3501085F3501087C
S315080134605F3501085F3501085F350108F533010845
S3150801347055350108F5330108F13401089535010878
S315080134803D2800F082803E28B4D1002001A9FFF72B
S31508013490D9FDAFE78028ADD15A4B1B6F03F007035F
S315080134A0013B032BA6D8DFE803F05350878FB0F50D
S315080134B0F06F6AD021D8B0F5B06F4BD00FD8B0F500
S315080134C0607F00F0858095D3B0F5806F47D0B0F561
S315080134D0A06F8FD1002001A9FFF7A2FC8AE7B0F5FA
S315080134E0D06F57D0B0F5E06FCFD0B0F5C06F81D1AE
S315080134F0002001A9FFF7C6FC7CE7B0F5206F71D063
S315080135000BD8B0F5086F4AD0B0F5106F7FF472AFDB
S31508013510002001A9FFF76AFD6CE7B0F5406F5CD0A2
S31508013520B0F5486F63D0B0F5286F7FF463AF00211B
S31508013530344B0391D3F8703203F00303012B5BD0AC
S31508013540022B14BF0B46152300E00523019351E70F
S315080135500223FBE7002001A9FFF73AFC4AE700200E
S3150801356001A9FFF7CFFB45E702934FF0E0231B695B
S315080135705B0705D5FFF7D4F90D230393039BE5E70D
S3150801358003A902A8FFF77EFCF8E7002001A9FFF7C7
S315080135907DFD2FE7002001A9FFF7FCFC2AE7194B5F
S315080135A0D3F8003103F00303022B07D0032B09D00C
S315080135B0012B0BD1FFF7CAF90323C7E7FFF722FA55
S315080135C00923C3E71CF00CF90823BFE70123BDE76C
S315080135D0184601A9FFF772FB0CE7002001A9FFF7BE
S315080135E0C5FB07E7002001A9FFF770FC02E70020E9
S315080135F001A9FFF79DFCFDE603A8FFF743FC11238C
S31508013600A4E700BF008000504FF48012034B5A66AE
S315080136104FF48032024B9A62704700BF0090005007
S315080136200050005A08B5FFF7D5FE092811D00A3807
S31508013630012811D84FF48002094B4FF6FF705A66DC
S3150801364003F5D8335B6A13F0010F18BF4FF4FA700C
S3150801365008BD044B1888FBE74FF6FF70F8E700BF73
S3150801366000900050C40C002038B504468020FFF7AE
S31508013670B1FE032800F08A804FF48012544B4FF0B4
S31508013680A0615A6645F60E03524AC2F88030524B7B
S3150801369099624FF4803103F580539962936DD9038A
S315080136A0FCD4916D11F08041FBD1D4E900031B05CF
S315080136B043EA0063E07B0343207B43EA0043607BE4
S315080136C043EA0033A07B43EA801313619069D4E986
S315080136D004531B0643EA856300F000400343A07EBA
S315080136E0E57E0343207E43EA0043607E43EA0023E6
S315080136F09361E069136A00280CBF0022082223F0AF
S315080137000F0343EA000343EA850343EA0203314A06
S31508013710324D13623BD194F82430916A94F8200013
S31508013720DB000D4043EA401394F821102B4343EA8A
S31508013730011343F480339362294B916D33EA0101F6
S31508013740FBD14FF08071244881621369A56823F47F
S31508013750700343EA055313614FF00043836194F8FC
S3150801376022300BB91F4B996294F823303BB94FF4B9
S3150801377080321C4B9A62174A936D5B00FCD494F80D
S3150801378025301BB1134B184AC3F8802038BD0228CF
S3150801379008D11161154891614FF408524FF47F41E0
S315080137A01CF07BF80B4994F822308A6A94F82000B9
S315080137B01B06154043EA401394F824202B4343EA99
S315080137C0C20394F8232043EA02438B62D7E700BF7A
S315080137D0009000500040005A0050005AC7FFFEFEF4
S315080137E0030001000060005AF1A7FFFF3440005AA8
S315080137F067B5194DFF28AA6A2BD8AB6D13F4803F1C
S3150801380018BF4FF48031154B18BF99624FF080717C
S315080138109962134B93F90060AB69064423F47F035D
S3150801382023F47F4343EA002386F3080043EA00436F
S31508013830AB610C4801921CF030F8AB6D019A13F498
S31508013840803F04D04FF4803106481CF026F8012049
S3150801385000E0002003B060BD0040005A0050005A45
S31508013860D80C00202840005A014B93F900007047F4
S31508013870D80C00204FF480300E490F4B8A6A9862A3
S31508013880886D00F003000328FAD14FF08070986222
S31508013890896D01211965074B996D8907FCD4996DC5
S315080138A08807FCD5996D8907FCD5044904481BF09E
S315080138B0F4BF00BF0040005A0050005A0000010141
S315080138C02840005AF0B5D0E901434FF400061A4AD8
S315080138D04178057856664FF4D156022702F5B83273
S315080138E05662164E4F2977604FF0010728BF4F21C0
S315080138F006F5805677601669F603FCD441EA052178
S3150801390051611B01417B43EA04230B43017B43EAD3
S3150801391041039360C37B817B1B0143EA4113417CCD
S315080139200B43017C43EA41035360837C13B16FF473
S31508013930D1535362F0BD00BF0090005000100250F1
S31508013940014B1880704700BFC40C0020014B18803A
S31508013950704700BFC20C00204FF4800208B5184B0F
S315080139605A660223174A5360936813F48033FBD1CE
S31508013970012822D1FEF7EAFF134B984215D003F529
S31508013980122303F5F863984213D0104B00EB80021B
S31508013990400AB3FBF0F0520A0A4BDA6201221863B5
S315080139A05A620022074B5A6008BD45F67A10084A42
S315080139B0F2E745F61A00074AEEE75362F1E700BF58
S315080139C0009000500040025000F0490264666666A5
S315080139D0D8B80500BBCF0500B0F5207F10B50C4659
S315080139E057D008D8B0F5007F48D003D830B3B0F522
S315080139F0C07F23D010BDB0F5607FFBD129492A4885
S31508013A00D1F8FC2012F080721EBFD1F8FC3023F0E9
S31508013A108073C1F8FC30D0F88030611E23F0300481
S31508013A2044EA0114C0F88040002AE3D01D4AD2F8BE
S31508013A30FC3043F08073C2F8FC30DBE71BF03EFF35
S31508013A401BF04AFF4FF48031184B174A1967136F59
S31508013A50611E23F4704444EA01341467FEF760FFDB
S31508013A600446FFF71FF9C0F1020120461BF02EFF9D
S31508013A7000F02EF8BDE81040FFF79CBC0A4A013950
S31508013A80D2F8903023F0F85444EA0164C2F8904021
S31508013A90B0E7054B013C196F21F4806141EA8424A2
S31508013AA01C67A7E700ED00E0008000500090005079
S31508013AB008B50121022000F071F81BF0FFFE1BF08A
S31508013AC00BFF4FF48032014B1A6708BD0090005076
S31508013AD008B54FF4C070FFF76FFBBDE8084004490D
S31508013AE088428CBF022101214FF42070FFF774BF71
S31508013AF080F0FA02034B5868C0F30800003818BF73
S31508013B000120704700ED00E0024A536B0342FCD1E5
S31508013B10704700BF00400950044A4178536F23F4A7
S31508013B20407343EA01235367704700BF00400050C2
S31508013B300A4A10B51369044643F00403136102F0F7
S31508013B40CFFE1BF0F3FE30BF1BF0F1FE02F0DCFEE8
S31508013B501CB9BDE81040FEF7E3BE10BD00ED00E05C
S31508013B60084A10B51369044643F00403136102F0C9
S31508013B70B7FE30BF02F0C8FE1CB9BDE81040FEF71B
S31508013B80CFBE10BD00ED00E0034A0179D36E23F0E4
S31508013B9030030B43D366704700400050F8B504461E
S31508013BA01C4BD3F88420D106FBD4D3F88430C3F355
S31508013BB081139C422CD0FEF799FE012C064602D1B0
S31508013BC021461BF083FE1BF0A1FE4FF00072124B3B
S31508013BD007465A6620461BF0ADFE4FF480630D4D2D
S31508013BE0621E93402B676B6E9A0103D4D5F8843015
S31508013BF09B060AD538461BF08DFE022C08D13046A5
S31508013C00BDE8F84000211BF061BED5F88430EAE72B
S31508013C10F8BD00BF004000500060005007B518B954
S31508013C200191FEF763FE0199064B1B7843B1064BDA
S31508013C30984205D8012003B05DF804EBFFF7AEBF43
S31508013C400220F8E77E250020005A62020278034B1B
S31508013C50012100201A70FFF7E1BF00BF7E25002071
S31508013C604FF0004238B5244B244C5A664AF6CD33F8
S31508013C70656C014605F00105236430BB0120FFF799
S31508013C8043FF6368DB0708D4002415B11B4B1C4AA4
S31508013C901A6426F06BF8204638BD1A4B5860084658
S31508013CA0194B226BD20705D4984201D10724ECE7B8
S31508013CB00130F6E79842E7D1F8E70132236B13F0B2
S31508013CC0080305D08A42F8D1F0E700220E49F5E744
S31508013CD08A42EBD020210B4A91620121A2F580523A
S31508013CE051600649084A886A800603D49342DDD0A2
S31508013CF00133F8E79342DEE700900050004009508F
S31508013D003254FFFF0060095040420F004FF0004255
S31508013D1038B5164B01465A664AF6CD33144C154A40
S31508013D20656C236443780B205B0043F00103D3637E
S31508013D30FFF7EAFE63688A7823F4F87343EA021305
S31508013D406360CA784B7943EA0223A3600A798B79BF
S31508013D5043EA022323610878FFF782FFEB0744BF92
S31508013D60054B236426F002F8012038BD0090005067
S31508013D7000400950004000503254FFFF4FF0004206
S31508013D80124B70B55D6E03F580535A664AF6CD330C
S31508013D9004460F4980204E6C0B64FFF7B5FE0B6A8B
S31508013DA023F00F030F2C94BF234343F00F030B6239
S31508013DB0F30744BF074B0B64002DA2BF4FF0004227
S31508013DC0054B5A6625F0D2FF70BD00BF0080005032
S31508013DD0004009503254FFFF00A000504FF0004246
S31508013DE0104B70B55D6E03F580535A664AF6CD33AE
S31508013DF004460D4980204E6C0B64FFF785FE0B6A5D
S31508013E0023F4F85343EA04230B62F30744BF074B31
S31508013E100B64002DA2BF4FF00042054B5A6625F0F0
S31508013E20A5FF70BD00800050004009503254FFFFC5
S31508013E3000A000502DE9F04105460F461E46904662
S31508013E404AB101233022194C8B4002FB00443EB390
S31508013E5004F5825423600F21072F05EB450388BF1C
S31508013E60A7F108044FEA0313114895BFBC00A40043
S31508013E7004330C3308FA04F2A14018441BF05BFD25
S31508013E80B8F1000F0AD101213020084A01FA07F7D3
S31508013E9000FB05223EB102F582521760BDE8F081AA
S31508013EA004F50154D6E702F50152F6E700C00350BE
S31508013EB030C003504FF48032054B9A6641F6713291
S31508013EC003F51C33DA63012203F50053DA60704700
S31508013ED00090005041F671320121064BDA6303F571
S31508013EE00052D1600022DA634FF48032A3F5183309
S31508013EF09A66704700000350013831289ABF024B71
S31508013F00185C0020704700BF04AA030810B5C2F365
S31508013F100623044602F0070241B942EA03220B4B83
S31508013F2042F44022063443F8242010BD18461146AF
S31508013F301BF013FD01461846FFF7DEFF034B41EA66
S31508013F400020163443F82400EFE700BF0080035031
S31508013F504FF48032064B5A6603F5E6239B69C3F391
S31508013F608512827003F03F021B0B42700370704783
S31508013F700090005040F6B732064B5B689BB29342FD
S31508013F809FBF4FF47A72B3FBF2F3034AD05C88BF42
S31508013F90002070470080E00F36AA0308014B986C91
S31508013FA0D96C70470080E00F0120034B9B680A33E8
S31508013FB003F01F03984070470080E00F012100F5C8
S31508013FC0805310B5596040F6AA6341F20502436170
S31508013FD00023094C8360C365C26000F50052036182
S31508013FE0C361C3649464054C8365A04204BF036539
S31508013FF04365516010BD00BFFFFF010000C00550B9
S3150801400038B50D46FFF7DAFF0122A97B00F5805383
S315080140105A602A8A8368002914BF4FF480610021F7
S3150801402042F0010213432A7D0B43002A14BF4FF0C5
S315080140300052002283608368044613438360AB7C85
S315080140405BB1194B984202BFEA7CA3F51033C3F85A
S31508014050C821C36D43F08003C3652B7B2046D5E990
S31508014060011243F48053E3601BF0CBFC6B7B0BB16D
S31508014070102363616B7D1BB1A36843F48033A3608E
S31508014080AB7D1BB1A36843F40043A360EB7D2A7E95
S315080140901B07120503F0E04302F4E0021343A3658C
S315080140A02B78636138BD00BF00C00550054B9A687F
S315080140B09107FCD45A689207F9D4DA69002AF6D12D
S315080140C0704700BF00800A5008B5FFF7EFFF0122CD
S315080140D0024B03F580514A601A6108BD00800A50F7
S315080140E0074B5A68012A0AD15A68D20702D5DA69F2
S315080140F0002AF9D102221A610122024B5A6070473D
S3150801410000800A5000A00A5010B5064CFFF7CEFFF2
S315080141106368012B03D1FFF7E3FFFFF7C7FF0378B6
S31508014120E36010BD00800A50E8B94A680B7812B1FD
S31508014130127843EAC2034A78002A14BF02220022EF
S3150801414013438A6812B1127843EA82138A78002ADD
S3150801415014BF042200221343CA6812B1127843EA33
S315080141604223014A9364704700800A5008B9014BFB
S315080141705964704700900A5008B9014B5964704751
S3150801418000A00A5008B9014B1964704700A00A50EB
S3150801419010B9024B186C70470020704700800A500E
S315080141A048B911B1012903D07047044BD86C70473F
S315080141B0024B186D70470020704700BF00800A50F7
S315080141C040B911B1012903D07047034BDA6470472E
S315080141D0014B1A65704700BF00800A5038B504467E
S315080141E0054D25F0E9FD0FCC0FC594E8030085E8D8
S315080141F00300002038BD00BF8818002047F6FF736A
S315080142009A42F0B566D0012966D8344DCF0015F823
S31508014210313005EBC100012B847813D10025C37811
S315080142201B1B9D4202D3E018C0B2F0BD591B46685C
S31508014230A3EB510136F911609642D4BF0D4601F13F
S31508014240FF33EEE740680028EFD0B0F9003093421B
S3150801425004DBB0F902309342B8BF134682883D4465
S31508014260FF2A19BFC8214FF0280CB0F90610B0F97A
S3150801427008C0A1EB03020CBF0126002692FBFCF243
S315080142806D78324412B2954201DD002A01DA6A1EBE
S3150801429012B24FF47A7700EBC206F188B66801329A
S315080142A013FB016112B221EAE1715C319542B1FB5E
S315080142B0F7F104DD00EBC206B6888E42EBD200EBBD
S315080142C0C20232F8040C884228BF0846A04238BF09
S315080142D02046A9E7FF20A8E70020A6E788180020BE
S315080142E00129F0B553D82B4800EBC10410F8311059
S315080142F0636801290FD1E078A478904294BFC4EB92
S315080143000001C4EB0201001BCAB28242C8BF0022E7
S3150801431033F91200F0BD002B39D0A178914202D3AE
S31508014320B3F90200F6E7E178B3F900009142F1D951
S3150801433099886478A1F1FF06013C714203F10405ED
S31508014340E4B2714103F10C071FFA82FCCEB2B44202
S3150801435016D805EBC1014FF47A756A43B1F90240E3
S315080143604968521A04EBD47102EB610292FBF4F22A
S315080143709042CFDBB3F902009042CBDC10B2C9E719
S3150801438037F831E04E1CE645E3D33146DEE702480D
S31508014390C0E700BF881800200080FFFF0148FFF72B
S315080143A01DBF00BF3CAA030800487047C60C002081
S315080143B07FB50222084B0949CDE901234FF0407325
S315080143C0CDE90313052301A94FF0FF30059325F025
S315080143D02BFD07B05DF804FB006A18000003040012
S315080143E008B5B0B14FF480620B4B9A661BF0EBFA35
S315080143F04FF098435A6CD202FCD54FF48062586D3F
S31508014400064B10F470209A6604D0BDE808401BF0EC
S315080144101ABB212008BD00BF0090005000A0005023
S315080144202DE9F0418CB08846DDE912761D46044631
S31508014430002847D0002945D0002F43D0002E41D06F
S3150801444013F00F033ED120482049A360002A18BF64
S315080144500146E361C4E90013404609A91BF0E7FBDD
S3150801446068BB204609991BF0A5FA294620461BF088
S31508014470A1FA6946404600F0E7FA00BB69462046BC
S315080144801BF084FA404603A91BF09FFCB8B92046E5
S3150801449003A91BF07BFA06970127204645F000552C
S315080144A006A9079708951BF071FA204609A90996E6
S315080144B00A970B951BF074FA2046FFF791FF0CB08B
S315080144C0BDE8F0812120FAE700010104000100049A
S315080144D02DE9F0438DB0884615461C460746DDF89A
S315080144E05090002850D000294ED0002A4CD0B9F15E
S315080144F0000F49D00B68103B102B45D8012606FA48
S3150801450003F303F0013323F08073002B3CD000231F
S315080145101E4A8360C0E90023C36109A940461BF00E
S3150801452086FB70BB384609991BF044FA2146384682
S315080145301BF040FA6946404600F086FA08BB694610
S3150801454038461BF023FA404603A91BF03EFCC0B9C6
S31508014550384603A91BF01AFA44F00054384606A94E
S315080145600695079608941BF011FA094B384609A9CE
S31508014570CDF824900A960B931BF012FA3846FFF7EA
S315080145802FFF0DB0BDE8F0832120FAE700000404EF
S3150801459010000020F0B50C4617461E46054695B094
S315080145A0002874D0002972D0002A70D0002B6ED052
S315080145B0036B0F2B5BD80023364A3846C4E9002320
S315080145C0A360E36111A91BF032FB00285BD12046E9
S315080145D011991BF0EFF9296B20460F2984BF01F0C9
S315080145E00F0110311BF0E6F9384602A900F02CFA42
S315080145F0002848D1204602A91BF0C8F9384605A962
S315080146001BF0E3FB00283ED1204605A91BF0BEF9A5
S315080146100122214B089509920A932B6B05F110008B
S3150801462003F00F0141F000510B900F2B0C920D91E5
S315080146300E900F9243F00052109226D90A9B08A9B0
S3150801464023F0005320460A931BF0A0F90BA9204634
S315080146501BF09CF90123119612930F4B204611A9C1
S3150801466013931BF09DF92046FFF7BAFE0BE000F104
S315080146702003019000930122102339462046FFF7B3
S31508014680CFFE002897D015B0F0BD0EA9DFE721208F
S31508014690F9E700BF00000404100000202DE9F04FDF
S315080146A09BB00D46914698460646DDF890A000282F
S315080146B000F0B380002900F0B080002A00F0AD8038
S315080146C0002B00F0AA80026B02EB0A031B09B3EB6D
S315080146D0121F02F00F0700F098800023504A8B60E2
S315080146E0C1E90023CB61484617A91BF0A0FA044685
S315080146F0002840F0868007EB0A0323F00F0B2846B3
S31508014700179900931BF056F9594628461BF052F99A
S31508014710484602A900F098F90446002871D12846AE
S3150801472002A91BF033F9484605A91BF04EFB0446BE
S31508014730002866D14FF00109284605A91BF026F97C
S31508014740384A284608A90896CDF824900A921BF0FB
S315080147501DF947F00051ABEB070706F1100347F0C7
S3150801476000570B93CDF830900D91CDF83880CDF8E0
S315080147703C9010970D99284621F000510D910BA9EF
S3150801478001931BF003F928460EA91BF0FFF8ABF1BC
S315080147901001244A41F000511194CDF84890139123
S315080147A006F120011491CDF85490169213992846D2
S315080147B041F080411391139921F00051139111A9E8
S315080147C01BF0EEF8284614A91BF0EAF8154A17A9B2
S315080147D028461796CDF8609019921BF0E1F82846FD
S315080147E0FFF7FEFD009B0446ABEB0301A3EB0B02AF
S315080147F0019B51441846414425F013FF336B53443A
S31508014800336320461BB0BDE8F08F1030524641464F
S31508014810384425F006FF0024F0E72124F1E700BF1C
S3150801482003020004100000202DE9FF4700230E466D
S3150801483017460446009300285BD00AB1002958D0D0
S3150801484037F0030807F0030A25D04FF000094FF0A7
S31508014850E063C4E90039012301962046029301A9C0
S3150801486048F00053C4F80890C4F81C9003931BF051
S3150801487097F8414620461BF09DF82046FFF7B0FD04
S31508014880054640B142464946304625F0F1FE2846DE
S3150801489004B0BDE8F0874FF00009BAF1000F2AD03D
S315080148A04FF0E063C4E900390123CDF804D002933F
S315080148B0124B204601A9C4F80890C4F81C9003932A
S315080148C01BF06EF8042120461BF074F82046FFF70A
S315080148D087FD054608B13A46D5E703460099464499
S315080148E0DA00013321FA02F29A4506F8012BF7D1CB
S315080148F0CDE72125CBE75546C9E700BF04000020CF
S31508014900F0B50F4616461D46044693B010B9212048
S3150801491013B0F0BD0029FAD0002AF8D0002BF6D042
S31508014920002331461A4638461BF036F90028EFD1DE
S31508014930304602A91BF0C6F80028E9D1EB68022B1C
S315080149400AD039683F48029A81426B6902D0183009
S31508014950814270D19A42DAD82B68002BD7D14FF011
S3150801496060623846C4E90023A360E36101A91BF02C
S315080149705EF90028CCD10199204621F4F061019114
S315080149801BF018F8694628461BF051F90028BFD1D3
S31508014990204600991BF00EF8384609A900F054F88C
S315080149A00028B5D1204609A91AF0F0FF38460CA906
S315080149B01BF00BFA0028ABD120460CA91AF0E6FF2A
S315080149C0EB684BB1284606A900F03EF800289FD1AE
S315080149D0204606A91AF0DAFF304603A91BF0F5F9B5
S315080149E0002895D1B368DA040CD59B0427D506218E
S315080149F0F36932691B6801FB03225B0043F000532C
S31508014A0003920593204603A91AF0C0FF28460FA969
S31508014A101BF0DBF900287FF47BAF20460FA91AF0BB
S31508014A20BFFF03252046FFF7DBFC01287FF470AFA3
S31508014A30013DF7D16CE7B3EB420F8DD267E7292029
S31508014A4066E700BF200000B0A0B199B101234B6011
S31508014A50C368013B012B0AD88069074B18B1086066
S31508014A6000208B607047054A0A608B6070474FF0DB
S31508014A700053F5E72120704708000020E8BB03082A
S31508014A8070B50E46154604468AB000285BD0002943
S31508014A9059D0002A57D0012329461A4630461BF019
S31508014AA07BF800284DD1B36813F4C04F4BD0AB68DF
S31508014AB003F4C043B3F5005F45D1254BA060C4E9B3
S31508014AC00030E06107A930461BF0B1F8002838D15B
S31508014AD0204607991AF06EFF304601A9FFF7B4FF81
S31508014AE078BB20461AF052FF304604A91BF06DF92F
S31508014AF038BB204604A91AF049FFEB681BBBAB6813
S31508014B0003F4C043B3F5005F1DD1694628461BF07F
S31508014B100AF8B0B9009B6A699A4216D32A6943F022
S31508014B20005307920122204607A9089203250993F3
S31508014B301AF036FF2046FFF753FC012801D1013D43
S31508014B40F8D10AB070BD2120FBE71D20F9E700BFA7
S31508014B500000010205289ABF014B185C0020704726
S31508014B60F0BB030830B5154B87B00293144B03907D
S31508014B70049346F611030D46059300F06DF91428C2
S31508014B80044616D168461BF0F1FA4FF0A8430322F2
S31508014B9002A95A6319601D619A63DA6B9207FCD1FF
S31508014BA0142C02D168461BF0EFFA00F089F9044685
S31508014BB001E00028E9D0204607B030BDA018002042
S31508014BC0040000202DE9F04FB1B005468C46E946B0
S31508014BD06E4F3B9EDDF8F8E0409C07F1100AC84687
S31508014BE0386879680837A8E803005745C146F6D1F9
S31508014BF00EEB0208C8F1000909F00F09002E00F0B2
S31508014C00AF80774207F00F070121DDF8FCB0C4F148
S31508014C10100ACDF810B0059144F0005106914FEAFB
S31508014C200A2101F4F85141F02101079106B96B46B1
S31508014C300893002D40F09680002C00F0938004AB79
S31508014C400993002E00F0908046F000530A93002D38
S31508014C5040F08D80002C14BF0123212343EA07234A
S31508014C600B9308A942F00053CDF830C03D980D9139
S31508014C700E934FEA092343F041030F93109002B1B3
S31508014C800CA9002A16BF00224FF00052412342EA1E
S31508014C900E021191129213933C9B3D4A149310AB49
S31508014CA015933C4B0021169340F6110317933A4B83
S31508014CB0002D08BF1346189314AB1993374B1022CE
S31508014CC01A9311231B931CAB184625F0D1FC01221C
S31508014CD01D924AF080421E9200220346239205B98C
S31508014CE0EB46102C08BF01230DF1900A1022002172
S31508014CF05046CDF880B02193229425F0B9FC002CBA
S31508014D0037D020AB002125938F4218BF534647F071
S31508014D10804226923A9A2CA88A42289229931346C7
S31508014D200CBF4FF080430B46102233432B912A9335
S31508014D3025F09EFCFEB95346C8442D932CA948F08C
S31508014D40804318A82E93FFF70DFF30B92DB90346F6
S31508014D50A34212D1002818BF2C2031B0BDE8F08F2C
S31508014D60102751E701236BE747F000536EE721232C
S31508014D7074E70123C6E728ABDEE703F1C0026A44FC
S31508014D8012F8C02C01331043E2E700BFF6BB030853
S31508014D9008BC0308100000200CBC0308040000200E
S31508014DA0F0B5C0299FB0249E4FD0B1F5807F04D0BD
S31508014DB0802941D029201FB0F0BD40F2344440F289
S31508014DC01445002E08BF2C462127102501940124DD
S31508014DD00296039404950597259F069706B102AC9A
S31508014DE007940124089509940A9221220B940C959B
S31508014DF00D92174A0AAC0E92164A0F94109242F671
S31508014E0011021192129313941495159201AA1692EE
S31508014E10CBB112AB1793042318931123199316AB2D
S31508014E201A901B9340F61103C9081C911AA806A9E2
S31508014E301D93FFF797FEBEE7002E14BF4FF4866455
S31508014E404FF48264C0E70EABE4E70F20B3E700BF77
S31508014E5010BC03081000001038B5164B5A6E42F004
S31508014E6004025A66D3F8802242F00102C3F880226E
S31508014E70114B5B68C3F3080343B14FF0A842D36BE8
S31508014E8013F0430FFBD11424204638BD4FF0A84335
S31508014E90DC6B14F04304FBD1084D2B681BB90421C4
S31508014EA0284602F053FC2B68013343F000432B607C
S31508014EB0EAE700BF0080005000ED00E0A0180020DE
S31508014EC0014B00205B68704700ED00E0012300F00C
S31508014ED01F02A0F506200949A0F550604009934034
S31508014EE051F820201A4341F82020054951F820207D
S31508014EF022EA030341F82030704700BFA4180020B6
S31508014F00B81800200121A0F506230F4AA3F550631E
S31508014F105B0900F01F0001FA00F052F8231008435C
S31508014F200A4942F82300D1E900300344886803445A
S31508014F30C868096903445B1802BFC2E90033C2E9BC
S31508014F4002331361704700BFB8180020A418002067
S31508014F502DE9F04FA9B002921D46DDE932670446F4
S31508014F600822CDE90301414021FA02F34B40980793
S31508014F7002F1080218BF9B00202A1C44F4D18123A0
S31508014F80B4FBF3F303EBC313E41A7A4B04F50624D3
S31508014F901B7804F55064002B40D1FDF729FE014624
S31508014FA020B16FF0910029B0BDE8F08F402205903D
S31508014FB008A825F05DFB4022059918A825F058FB9D
S31508014FC0DFF8C891DFF8C8A14B4603F10F0B102291
S31508014FD008A9DAF80000CDF800B0059324F0A6FC7C
S31508014FE000220146059B09F110090DF1200891429D
S31508014FF04CD1CDF800B01022DAF8000018A924F037
S315080150009EFC4FF0000B03460DF160085B4549D144
S31508015010594B9945D8D10122564B1A704FF0810840
S315080150204FF00009DFF868A1A4F506235349A3F553
S315080150305062520951F8221004F01F0C21FA0CF1A2
S31508015040C90744D44E4951F8220020FA0CF010F051
S31508015050010030D0B9F1000F08BFA146A3F6FF44FD
S315080150608123B4FBF3F303EBC313E41A04F5062413
S31508015070B8F1010804F55064D6D1029BEBB1B9F138
S31508015080000F1AD0349BC3F800906DE058F8040B52
S31508015090CDE906230591FFF719FF069A079B05999E
S315080150A00132A4E758F8040B05930BF1010BFFF73E
S315080150B029FF059BAAE7029B13B96FF08B0072E7DC
S315080150C0349BB9F1000F4ED0C3F800906BE70EB1CF
S315080150D0002333600FB100233B604FF0100B002310
S315080150E02A462146DAF80000CDF800B012F04AFF48
S315080150F008BB0EB1C6F800B02B68224A934224D1E8
S3150801510066B15FB13B462146DAF8000018AA12F0EB
S315080151108DFF80B93B6832689B1A3B60D5E902234B
S31508015120DDE90310834208BF8A4216D0A4F5062496
S31508015130A4F6FF4494E7144B984206D012339842DA
S3150801514003D0133B9842E9D02BE72146DAF8000051
S3150801515012F0B2FF0028E1D0AFE7029B13B16B68EA
S31508015160012B03D0349B1C6000201CE76FF08400E0
S3150801517019E700BF7F25002000710800A418002048
S31508015180B8180020105D175EFFDF00F0006D0800FB
S31508015190D40A00202DE9F04F87B082468946984601
S315080151A01646DDF840B02AB1002B4ED040F26C739A
S315080151B09A424DD8BBF1010F4DD8002406F11007CC
S315080151C03946012005941BF05AFD0546002845D0AD
S315080151D021463A4625F04CFA05ABCDE90143009440
S315080151E02B46012250464946FFF7B2FE044680B1D6
S315080151F010F18C0F08BF6FF08D043A46002128463E
S3150801520025F036FA28461BF04BFD204607B0BDE8C7
S31508015210F08F144BC5E902A92B60C5F804B02EB16D
S315080152203246414605F1100025F0FBF90E483B468A
S315080152302A460599006812F00DFE18B90598FFF778
S3150801524045FEDAE76FF09104D7E76FF08604DCE7ED
S315080152506FF09104D9E76FF08504D6E76FF08C04F7
S31508015260D3E700BF105D175ED40A00202DE9F0438D
S315080152708DB08146DDE914780C4615461E469BB16C
S31508015280B8F1000F05D16FF0860420460DB0BDE8D0
S31508015290F083002FF7D0B7F1005FF4D3C3F10053C1
S315080152A003F580239F42EED81022002108A825F095
S315080152B0DFF9002207AB029305AB019306AB214642
S315080152C00093484608ABCDE90522FFF741FE04469F
S315080152D00028DAD10599DEB1A94203D80029D2D12D
S315080152E015B1D0E70029FBD0491BB14228BF314689
S315080152F0069B0948C8F8001000913A4607990068C4
S315080153002B4412F03FFE002818BF6FF09104BCE74A
S31508015310A942E9D2B7E700BFD40A002030B58DB05B
S315080153200C4605461022002108A825F0A1F90022FD
S3150801533007AB029305AB019306AB214600932846BA
S3150801534008ABCDE90522FFF703FE0446D0B9099B50
S31508015350012B1AD0104B0799186812F0ADFEB8B98F
S31508015360012207980D49A0F50623A3F550635B09A9
S3150801537000F01F05AA4051F823506A4041F823203E
S31508015380FFF7C0FD20460DB030BD6FF08404F9E784
S315080153906FF09104F6E700BFD40A0020A418002094
S315080153A02DE9F04F93B00446DDE91E75DDE9206865
S315080153B09346DDE91C028A46DDF8889029B96FF023
S315080153C08604204613B0BDE8F08FBBF1000FF6D076
S315080153D00FB9002DF3D108B9002AF0D116B9B8F1E1
S315080153E0000FECD1B9F1000FE9D02D4A934244D10F
S315080153F02388B3F5105F40D12022002102A825F0A9
S3150801540037F9202200210AA825F032F902A81AF054
S315080154104AFB78BB20465A4651460AAB00F00EFABB
S3150801542004460028CDD10A981AF01CFF0446002824
S31508015430C7D115B9C9F80000C3E7B7422CD27B1901
S315080154409E4229D24545BAD839462A46304625F0DC
S31508015450F5F8374615F00F0AB1D1CDE900762B4696
S3150801546052460AA902A8FEF7DBFF074640B9C9F862
S315080154700050A6E76FF09204A3E76FF08504A0E752
S3150801548042465146304625F0F3F8012FC9F800A0E7
S31508015490F0D16FF08B0494E74545DBD98FE700BF60
S315080154A0004440042DE9F047C2B00C4606460021E7
S315080154B0154601A820229A46DDF82891DDF83081A3
S315080154C04E9F25F0D5F82022002109A825F0D0F80D
S315080154D02022002111A825F0CBF82022002119A8A5
S315080154E025F0C6F80021802222A8219125F0C0F8CE
S315080154F0002C5BD0002D59D0B9F1000F56D0B8F168
S31508015500000F53D0002F51D02188628801F4E0435F
S31508015510B3F5804F4AD0314B3148334043F01063DD
S31508015520834205D06FF08504204642B0BDE8F08776
S31508015530D31DBAEBD30F4FEAD30637D34D9B9E4201
S3150801554046D847F212139942ECD1B2F5807FE9D1D8
S31508015550244B4B98099309F101030D9384230230D7
S3150801556020F00300169373000E90129320465246BC
S3150801557029460DF1840901ABCDF8549000F05EF986
S3150801558004460028D0D10B9B119043F4005319A867
S315080155900B931AF088FAF0B911AB09AA01A919A84F
S315080155A0FFF7AEF9054620B14828BBD06FF086044F
S315080155B0BAE732464946404625F033F82A4609EB0A
S315080155C005030135852D01D13E60ADE71A70F6E771
S315080155D06FF08904A8E76FF09204A5E70000FFF6CB
S315080155E00000020920000080F0B50D4614461E464B
S315080155F0C3B010B96FF086000DE00029FAD0002A71
S31508015600F8D0002BF6D0038803F44F42B2F5824F47
S3150801561003D06FF0850043B0F0BDDAB2122AF8D193
S3150801562023F0FF03B3F5E24F28D14388336003BB68
S31508015630E30033603368B3F5807FEAD10023424A39
S31508015640281914441A4614F8016D10F8011D0A4365
S31508015650891B0CBF4FF0FF360026854203EA060375
S3150801566043EA0103EFD1002AC4D0002BC2DA002095
S31508015670D1E70733B4EBD30FDCD0BBE7B3F5824FE1
S315080156805FD10B78042BB5D120220021684624F07E
S31508015690EFFF68461AF007FA00284FD18422002145
S315080156A00DEB0200209124F0E3FF20220123882735
S315080156B000210DEB0200013C8DF88030013524F004
S315080156C0D7FF202200210D9410A8E4000C95640848
S315080156D024F0CEFF20AD2022002118A81495159795
S315080156E024F0C6FFE02CCDE91C57346003D0B4F58D
S315080156F0807F7FF47FAF154B0734089310934FF4DF
S3150801570000530A934FF48043E408129308AA18AB8E
S315080157106846640010A91994FFF7F2F8336807334D
S31508015720DB085A0043B900283FF475AF62E705F86C
S31508015730013B013AFBD2F6E70023FAE76FF0920044
S3150801574069E76FF0960066E714BC0308200000803D
S31508015750F8B5134642880D460732072A4FEAD201A1
S3150801576004D0A94202D06FF086003AE04468068860
S31508015770C76820221846002124F07AFF240A034626
S3150801578014B1012C52D1C460002DECD041F20102B2
S31508015790964205D0B6F5885F02D0B6F5905F0ED170
S315080157A05D60002C45D017F0020007F0010116D103
S315080157B0B9B99A68084642F080729A6011E0B6F55E
S315080157C0105F07D1182D03D0202D01D0102DCAD175
S315080157D01D60E5E706F44F42B2F5824F02D06FF03D
S315080157E08500F8BDF2B2122AF9D1202DF7D1124A55
S315080157F026F0FF06B6F5E24F1A600DD14FF4804246
S3150801580017F4705F9A600DD017F4864FE7D19A683E
S3150801581042F480629A60C4E7B6F5824FA3D14FF489
S315080158200052EDE79A6822F48062F3E76FF08B0085
S31508015830D7E72046D5E700BF200000802DE9F041D3
S31508015840154600221C4643688AB01B0A07460E46BF
S31508015850019204D0012B59D06FF08B0094E0008897
S3150801586020F0FF03B3F5824F4ED17A880732D2086A
S3150801587001921AF003FD002800F001810B78042B30
S3150801588002D06FF086007FE0013DB5EB420F06F1CD
S315080158900106F6D1224638460199FFF759FF002835
S315080158A072D10335C4E9030625F003056561019D37
S315080158B0002C00F0C880002D00F0C58020220021B0
S315080158C002A824F0D5FE2946384602AAFFF740FF6A
S315080158D0002840F0B8802368029A9A4240F0B380C3
S315080158E06368039A9A4240F0AE80A368049A9A4282
S315080158F040F0A980A369089A9A4240F0A480E36916
S31508015900099A9A4240D09EE00195C3E7032DB8D97A
S3150801591091F80080B8F1010F40F0B4804978002968
S3150801592079D0F739082997D801A353F821F000BF90
S31508015930C75901088F59010859580108AB59010877
S31508015940595801085559010859580108E3590108D8
S31508015950FD5901081C22002103A824F089FE4B4B9E
S315080159604FF4105002930323CDE90403FC23069355
S315080159700AAD02AB1A4603CAAA4220606160134601
S3150801598004F10804F6D100200AB0BDE8F0811C2212
S31508015990002103A824F06CFE3C4B4FF410520293ED
S315080159A00323CDE90423F823E1E71C22002103A8F8
S315080159B024F05EFE10234FF0807E02930323CDE987
S315080159C004E3FA23D3E71C22002103A824F050FE9E
S315080159D020234FF0007702930323CDE90473F723BD
S315080159E0C5E71C22002103A824F042FE274B284DB7
S315080159F002930323CDE90453FE23B8E700211C22B1
S31508015A0003A824F035FE214B224902930323CDE94D
S31508015A100413FF23ABE72B2D7FF633AF2022204655
S31508015A2024F026FE7368103D2360B3681036636060
S31508015A3056F8043C2046C4E902382661656101A985
S31508015A401AF040F828B120220021204624F010FE41
S31508015A5017E73A88019B02F44F41B1F5824F08D105
S31508015A60D1B2122905D122F0FF02B2F5824F08BF41
S31508015A705B0062691C339A42BFF419AFE3E76FF022
S31508015A80850081E76FF091007EE700BF2000008066
S31508015A9000440002004400032DE9F04790B0DDF808
S31508015AA0608006460C4692461A9FB8F1000F05D14A
S31508015AB06FF08604204610B0BDE8F0870393002FE7
S31508015AC0F6D00028F4D0202200210DEB020024F0A4
S31508015AD0CFFD08A819F0E7FF039B10B16FF09204F8
S31508015AE0E8E714F47C1FC4F305452CD0102DDFD844
S31508015AF0199A954237D81F4A24F47E14944235D10F
S31508015B0000220DF11009CDE90422CDE9062231461C
S31508015B105246CDF8009008A8FEF7DAFC0446B0B95B
S31508015B202A464946404624F07CFD224609EB0403F1
S31508015B300134112C09D100243D6008A819F0BDFFD4
S31508015B400028B7D0CAE71025D2E71A70EEE7212850
S31508015B5006D0012814BF6FF092046FF08B04ECE7AE
S31508015B606FF08604E9E76FF08904A3E76FF085040F
S31508015B70A0E700BF0002C00370B50E4614460546ED
S31508015B8010B96FF0860070BD0029FAD038220021BD
S31508015B9024F06EFD094B24F47E129A420AD1338809
S31508015BA0B3F5105F06D1C4F30543102BE9D80020DD
S31508015BB02C60E8E76FF08500E5E700BF0002C00347
S31508015BC0F0B50F4616461D4604468BB070B302B9AA
S31508015BD063BB2022002102A824F04AFD02A819F07D
S31508015BE062FFA8B92368134A23F47E13934214D19A
S31508015BF04DB133463A46009502A9201DFEF74EFDE2
S31508015C0001280DD078B9002402A819F056FF08B169
S31508015C106FF0920420460BB0F0BD6FF08804F3E7ED
S31508015C206FF08B04F0E76FF09204EDE76FF08604EE
S31508015C30F0E700BF0002C0032DE9F0418CB08846A9
S31508015C4016460446129F002841D0002A3FD0002B51
S31508015C503DD0002F3BD0102B28BF10231D460368CB
S31508015C6013F47C1FC3F3054202D0954228BF15469B
S31508015C701A4A23F47E1393422CD12022002104A828
S31508015C8024F0F6FC002304A8CDE90033CDE902335C
S31508015C9019F009FF40B96B46424604A9201DFEF7D3
S31508015CA079FC20B100233B606FF092000CE004A858
S31508015CB019F003FF04460028F4D12A4669463046FE
S31508015CC024F0AFFC20463D600CB0BDE8F0816FF0D2
S31508015CD08600F9E76FF08800F6E700BF0002C00307
S31508015CE00023C36001F13803036120230A68436175
S31508015CF08B6D0B4922F47E128A42436003D001F56B
S31508015D0080718A4208D1102B02D1036000207047A6
S31508015D10182BFAD0202BF8D06FF08800704700BFF7
S31508015D200001C00307B5094B18689A889B7900904A
S31508015D306846ADF804208DF80630FDF7E7FF09201F
S31508015D40FEF71CF8002003B05DF804FB34BC030819
S31508015D5013B50024064A6846536F23F001035367B7
S31508015D6000948DF80440FDF70FFF204602B010BDE0
S31508015D700040005030B58BB06C46174D0FCD0FC49F
S31508015D800FCD0FC495E8030084E80300134BD3F83D
S31508015D904C21120318D4D3F85041E4B28DF81940B6
S31508015DA0FDF762FD204480F308008DF818000C48C1
S31508015DB0FCF7D2FD6846FDF757FC4FF4FA70FDF77C
S31508015DC0C5FD00200BB030BD064B1C884FF6FF738E
S31508015DD09C4208BF5F24E1E73CBC03080080E00F52
S31508015DE0C01753020001E00F30B5094D87B001AC69
S31508015DF00FCD0FC42B6801A823602C238DF805301D
S31508015E00FDF760FD6420FDF79BFD002007B030BD5E
S31508015E1064BC03086FF00402502110B50A480B4C04
S31508015E2012F0800FD3B21BBF03F00F03043BA31874
S31508015E301B1802F101020CBF83F8001319764C2ACC
S31508015E40EED1002010BD00BF00ED00E000E100E04A
S31508015E5038B500F0DDFE0446E0B900F09DFF4FF4C9
S31508015E60167343430C4803F5742303F23F23B3FB2C
S31508015E70F0F30A4A0A4913600A220D680948013AE9
S31508015E8012F0FF0240F8043BF9D103EBC3022B449D
S31508015E9013440B60204638BD40420F000419002008
S31508015EA0D4180020D8180020012208B5034B1A700F
S31508015EB01AF066FE024B186008BD00BF8025002057
S31508015EC0001900200122024B1A70024B1860704714
S31508015ED081250020D0180020F8B5234D234C2A78B7
S31508015EE0237812B9002B34D1F8BD23B100232B70C6
S31508015EF038E02B784BB31AF043FE1D4B1B68C01ACA
S31508015F001C4B1D4F18601B4B1C481968DFF878C0DD
S31508015F10012938BF01211960037857F8232047F86A
S31508015F202310561A0A21DCF800200133921BCCF8FB
S31508015F3000200932B2FBF1F2114EDBB23260B3FB3B
S31508015F40F1F201FB12330370D0E71AF019FE336838
S31508015F50D5E71AF015FE0B4E3368984201D9002B86
S31508015F60C7D100232370BFE78025002081250020A3
S31508015F7000190020CC180020D818002082250020FE
S31508015F8004190020D0180020D4180020014B1868E5
S31508015F90704700BF0419002020234FF48012042102
S31508015FA010B50F4C0F4884F82C330F4B5A660F4B1C
S31508015FB003F5005250675167106711674FF4805215
S31508015FC0C4F8842162609A18506751679A6A22F068
S31508015FD000729A629A6A42F410629A6210BD00BF10
S31508015FE000E100E0010000A0009000500040005AC6
S31508015FF0044B9A6D12F0050F02D10028F9D17047AA
S31508016000012070470040005A164B10B51C6F14F05A
S31508016010040211D003F500531A6708229A62FFF7A2
S315080160205BFF00F0B5FB00F095FB012000F0A8FF2F
S3150801603004210020FEF7A6F8E30706D501220A4B3C
S315080160401A67FFF749FF00F085FB14F000521CBFE1
S31508016050054B1A67002CBEBF4FF00042024B1A6768
S3150801606010BD00BF0040005A0060005ABFF35F8FA1
S31508016070074B5A6A22F480325A62D3F8942022F0E6
S315080160800102C3F89420BFF34F8FBFF36F8F704798
S3150801609000ED00E070B52648264CFFF7E7FF84427D
S315080160A008BF4FF08043244A18BF20F01F03D2F8D7
S315080160B0C01018BF203B21F0FF0141F0A001B3F148
S315080160C0005FC2F8C0100CD31C4D1D4E296843F061
S315080160D00103C2F898100131C2F89C60C2F8A030D9
S315080160E02960844210D01548164B0268124923F0DC
S315080160F01F0343F00303C1F89820C1F89C30124BE3
S315080161000132C1F8A0300260BFF35F8F05220A4B46
S31508016110C3F894205A6A42F480325A62BFF34F8F09
S31508016120BFF36F8FBFF34F8FBFF36F8F70BD00BF84
S31508016130F40C0020A00E002000ED00E00819002054
S3150801614003000020BF0E0020E1FFFF3FF8B514460B
S31508016150FFF78CFF1F2C27D90027C2062A4D1CBF23
S3150801616020F01F0020302A68CB06284B18BF21F0E3
S315080161701F01FCB2A24219D8D3F8C04020F01F0073
S3150801618024F47F4444F4807421F01F01C3F8C0400D
S3150801619040F00300C3F8982041F003010132C3F827
S315080161A09C00C3F8A0102A6000201AE0C3F89840A2
S315080161B0D3F89C40D3F8A06024F01F04A04226F02F
S315080161C01F0601D1B142EFD0B04201D8A14207D290
S315080161D0D3F89840013724F0FF04C3F89840C8E77C
S315080161E02820BFF35F8F0522084BC3F894205A6A0B
S315080161F042F480325A62BFF34F8FBFF36F8FBFF3FA
S315080162004F8FBFF36F8FF8BD0819002000ED00E02E
S31508016210BFF34F8F0549064BCA6802F4E062134380
S31508016220CB60BFF34F8F00BFFDE700BF00ED00E075
S315080162300400FA05054B1A782AB95B78002B14BFB6
S315080162400220032070470120704700BF8B250020DC
S315080162500329F8B598BF124B05460E468CBF002494
S315080162605C5C032805D8DFE800F002080B0E44F051
S3150801627002040C4B1F684FB9F8BD44F00804F8E74F
S3150801628044F02004F5E744F08004F2E77B681A68D5
S31508016290144203D0314628465B6898473F68EAE7C7
S315080162A078BC03083019002038B5104D2B78ABB1EE
S315080162B00F4C23781BB100F053FB002323700020F9
S315080162C000F072FB0B4C50B100F078FB0023012162
S315080162D020782B70FFF7BCFF0123237038BD0122FC
S315080162E0054B1A702278054B1A70F7E78A250020A4
S315080162F0852500208325002089250020902500205A
S3150801630010B519F003FB064B04461B781BB1BDE813
S31508016310104019F0FFBAFFF7C7FF2046F7E700BF9D
S3150801632084250020002814BF0121FF21074A13787C
S315080163300B44137008D0064B1B78012B04D9054B67
S315080163401B780BB9FFF7B0BF704700BF8B2500203C
S31508016350832500208925002070B519F0D7FA124E39
S31508016360054633789BB900F053FC044620B128460C
S3150801637019F0D0FA204670BD0C4819F039FA00F028
S31508016380E1FE0B4B1C6000F007FD0A4B186000F09C
S3150801639033FA1AF0B0FB084B00241860012328468B
S315080163A0337019F0B7FAE5E7862500203019002081
S315080163B038190020341900202C19002000292DE94C
S315080163C0F34114BF0121FF21254A00F1FF30135C77
S315080163D00B4413543AD0234E3178012936D9FFF7A5
S315080163E029FF0128044634D81F4F19F08FFA3B7844
S315080163F01BB31E4D2B781BB901222A701C4A137038
S31508016400DFF8708098F8003033B1019000F0A8FAEF
S315080164100023019888F8003019F07CFA012000F071
S31508016420C3FA19F073FA2B782BB1019000F0C6FA6A
S31508016430002301982B7000233B7019F06BFA307812
S31508016440A04203D02146FFF703FF347002B0BDE82E
S31508016450F0810329F3D10228F1D11AF050FBEEE7B6
S315080164608B250020832500208A25002084250020ED
S31508016470892500208525002010B5044619F046FA1D
S31508016480002C14BF0121FF21064A13780B44DBB205
S315080164901370B3FA83F3BDE81040034A5B0913701E
S315080164A019F038BA8E2500208D25002068B519F017
S315080164B02DFA094B06461B78012B04D819F02AFA3E
S315080164C00025284668BD054B1D6800F0ABFA054452
S315080164D0304619F01FFAF4E7832500203819002001
S315080164E038B54160044619F011FA054621460448B3
S315080164F019F081F92846BDE8384019F00BBA00BFF2
S3150801650030190020054B1B685843054B00F57420CC
S3150801651000F23F20B0FBF3F0704700BF34190020AA
S3150801652040420F002DE9FF47EFF3108672B600E0EF
S3150801653000BF19F0DBF8002800F09B80704D714F01
S315080165402B7823B10020FFF7EDFE00232B70FFF710
S3150801655071FE0446002800F09380841EE4B2012CE3
S3150801656040F29680FFF766FE0128804604D9664BFD
S315080165701B780BB91AF0BDFA644CDFF8B091207894
S31508016580DFF8ACA140450AD0002389F800309AF813
S31508016590003013B94146FFF75BFE84F8008099F88D
S315080165A000303BB12378022B04D1002389F800304F
S315080165B023F03EFDB8F1010F0FD9DFF84C8198F8A9
S315080165C0003053B9524B1B7823B900F0C3F90122A5
S315080165D0504B1A70012388F80030207800F00CFA25
S315080165E09AF8003013B14C4B1B78237000E000BFBA
S315080165F006B962B6EFF3108672B6484B1A7852B1ED
S3150801660000221A70444B20781B78984203D1012145
S315080166102170FFF71DFE384600F034FB19F071F8BA
S31508016620804600288CD1384F89F800003B789BB109
S31508016630DFF8E0908AF8000099F800301BB100F005
S315080166408FF989F80080002000F0AEF900284ED0B5
S3150801665000F0B4F900233B702B7823B10020FFF733
S3150801666061FE00232B7000212078FFF7F1FD00233E
S31508016670237000E000BF06B962B604B0BDE8F08732
S315080166802B78002B3FF46EAFFFF74CFE2C7069E7B1
S31508016690002003A900F03AFB044600287FF462AF04
S315080166A01F4B039A1B689A4205D80120FFF73AFE49
S315080166B001232B7056E71B4BD3F8008000F0B2F983
S315080166C0039B80449845F0D200F0C2F900280CBF1C
S315080166D000230423039943F00203CDE90043384616
S315080166E02346114AA1EB08011AF00AFA3AE70120F2
S315080166F000F082F906B962B6EFF3108672B6A2E720
S315080167008F2500200C1900208A25002083250020CA
S315080167108E2500208525002090250020882500202B
S315080167202C19002038190020016301088D25002045
S315080167308925002010B519F0E9F80022044B1C78C8
S315080167401A7019F0E7F800F00FFC2043C0B210BD2B
S315080167508725002010B5094B1B786BB1084C2378A7
S3150801676053B100F02BF90023064A23701370012355
S31508016770054A1370054A137010BD00BF8325002012
S31508016780892500208A2500208725002088250020C4
S31508016790034B1B7813B10122024B1A70704700BFD5
S315080167A0832500208925002073B5114E04463378C8
S315080167B0834212D000238DF8043080B102238DF86C
S315080167C0053001A8FDF7A8F90A4D402054B1FFF795
S315080167D099FE2B68181A2860347002B070BD8DF8BE
S315080167E00500EEE7FFF78EFE2B681844F3E700BFB6
S315080167F0D90C00204019002073B5002401A88DF892
S315080168000440FDF723FA2046FFF7CEFF4FF4801028
S315080168102C4B2D491A6F02F007020A602B49D3F84F
S31508016820203148664FF40030486601F59831896988
S31508016830032A01F002013DD003F00703981E4342E3
S3150801684043412348234D037061B31E4A3BB9D2F82D
S31508016850003103F00303591E4B424B410370D2F832
S31508016860003103F00303022B26D0032B27D0012B7B
S3150801687018D1FCF76BF8A8B1174B411EDC68002349
S31508016880024608461946C4F30B04144E013404EBB8
S315080168908404E4FB060118F0B1FBFFF733FE2B680D
S315080168A0184428601F20FFF72DFE2B68184428601E
S315080168B002B070BD0123C4E7FCF7A4F8DBE718F0C2
S315080168C08FFFD8E7008000503C1900200090005047
S315080168D0932500204019002000C0015040420F00B6
S315080168E0074B1A7852B100221A70064A136F23F021
S315080168F0070343F001031367FCF712B8704700BF9B
S31508016900912500200080005008B50E4B1B788BB1ED
S3150801691002201AF050F968B100F02AFA50B10A4B70
S315080169209A6DD20307D5DB6D9B0704D54FF48032E8
S31508016930064B9A6208BD0122054B1A70FFF7B4FA95
S31508016940F4E700BF932500200040005A0050005A82
S31508016950922500200122014B1A70704791250020CB
S3150801696038B50D4B1B7873B10C4C23788BB90C4B8E
S315080169700C4D9A6D12F4803F06D0DB6D9B0703D54B
S315080169804FF48033AB6238BDFFF78EFA4FF480338C
S31508016990AB6200232370F6E7932500209225002099
S315080169A00040005A0050005A034B1B780BB1FFF701
S315080169B01FBB0120704700BF9325002008B518F0BA
S315080169C0B8FF094A0949136F096823F007030B43FE
S315080169D01367074B1B781BB14FF48032054B9A623C
S315080169E0BDE80840FBF79CBF008000503C19002019
S315080169F0932500200060005A02280AD003280BD0EC
S31508016A0001280CD1064A136923F00403136130BF28
S31508016A1070470020FDF78CB80020FDF7A1B8704734
S31508016A2000ED00E008B5054B187818B1FFF7AEFA86
S31508016A3000EBD000024B1B68184408BD93250020C3
S31508016A40401900200122014B1A7070479325002036
S31508016A50014B1878704700BF9325002010B500F048
S31508016A60E7FA0A4C0A4B19682368C31A01B10BB92C
S31508016A70206010BD4A699A423ABF9B1A0022D21A6F
S31508016A804A6128BF00238968F0E700BF441900203E
S31508016A9050190020C38870B504460D463BB9FFF767
S31508016AA005FD8542064602D21AF00AF835460F490F
S31508016AB065610B68ABB90C60A36011E0AD1A9A6801
S31508016AC0184665612AB113465A69AA42F6D950B1E0
S31508016AD01A4613468460A36013B15969491B596163
S31508016AE070BD0020F0E70C60F5E700BF50190020E3
S31508016AF038B5134D2B685B6993B1124A02201468A5
S31508016B001C441AF04FF8204600F0C6FA00230E4935
S31508016B102A680B70D088800709D501230B7038BD08
S31508016B2002201AF03FF8022000F004FBEEE7926813
S31508016B30002AF4D050690344012BEBD9EFE700BFD3
S31508016B40501900204419002095250020F8B516464D
S31508016B509DF81C20BDF820700271069A0446026051
S31508016B6000220D46C0E903368260C780C6B900F027
S31508016B705FFA2844A0613DB9E368656113B120460F
S31508016B802168984756B13546062F0DD1104A284631
S31508016B90936A43F00803936200F052FA0020F8BDA5
S31508016BA000F046FA3044E5E718F0B0FE0646FFF76E
S31508016BB055FF29462046FFF76DFF064B1B68A34282
S31508016BC001D1FFF795FF304618F0A4FEE6E700BFAE
S31508016BD00040005A5019002000220C490B687BB16D
S31508016BE083420AD183687AB1936083681BB15A6973
S31508016BF041690A445A61002070471A469B68EEE7C4
S31508016C000028EFD0022070470B60EEE750190020EC
S31508016C1070B518F082FE144E05463478FCB9134B4C
S31508016C201C60134B1C60134B1C8000F0B9F9012042
S31508016C3019F0B8FF19F0EAFF0F4B0246186020B9A0
S31508016C40284618F070FE232070BD234640F2E7312E
S31508016C500A4818F0D3F90A4B1860012333702846FD
S31508016C6018F061FE0020EFE7942500205019002056
S31508016C70441900200C2500204C19002018FCFFFFA0
S31508016C80481900202DE9F0410546F8B118F03EFEF5
S31508016C900F4F0646FFF7E2FE2846D7F80080FFF7B2
S31508016CA09BFF044628B1304618F034FE2046BDE85D
S31508016CB0F081A8453B6803D123B1FFF719FFF2E735
S31508016CC0002BF0D1022000F01FFAECE72224EDE7B1
S31508016CD05019002038B50C46054698B191B10023E4
S31508016CE00B7018F01AFE0121074B1B680BB12278AD
S31508016CF01AB118F018FE002038BDAB4214BF9B68C4
S31508016D002170F3E72220F7E7501900202DE9F04119
S31508016D100746884618F001FE00260546124B1C68F0
S31508016D2024B9284618F0FFFD1B2016E063691E44A6
S31508016D30E388BB4215D100F07BF90C4C2368C01AD5
S31508016D40B0420CD200F074F922683244121A28466D
S31508016D50C8F8002018F0E7FD0020BDE8F081002200
S31508016D60F5E7A468DCE700BF5019002044190020A4
S31508016D7008B5074B187848B119F002FF054B1B688F
S31508016D809B69C01A02288CBF0020012008BD00BFDC
S31508016D909525002050190020014B1868704700BF3F
S31508016DA04C1900200C4B70B51B680D46834211D354
S31508016DB040F2E73100248C462146084B4FF47A729B
S31508016DC01E680023E0FB06C1604618F017F9286023
S31508016DD0204670BD2120FCE7481900204C190020E7
S31508016DE00F4B10B51A689AB14FF47A71531E1342B4
S31508016DF0A0FB01010ED1B2FA82F2C2F11F04531CA3
S31508016E00D243E04001FA03F3184321FA02F202439E
S31508016E10104610BD002318F0F1F80246F8E700BF46
S31508016E204C190020C2072DE9F04704460BD54B4AF9
S31508016E30138801339BB21380FFF710FE484B1B687A
S31508016E400BB1FFF755FEA30740F1858018F065FDE4
S31508016E504FF0000980464D46FFF700FE4F46404E6B
S31508016E6034680CB163698BB100223E4B012D1A704F
S31508016E7003D119F0020F18BF1D70002C5BD0FFF764
S31508016E8037FE4046BDE8F04718F04DBD23461A794E
S31508016E902179914288BF1C469B6813B15A69002A19
S31508016EA0F5D0404618F03FFDD4F81090B9F1000F1F
S31508016EB045D000F0BDF8A269A0EB02084FEAE873D5
S31508016EC0C14577EB03033BDA23691344A361012325
S31508016ED02269CAB1C3B9A38BB9EB080833B1E28BEE
S31508016EE013449BB2B3F57A7F1CD2E38318F015FDE0
S31508016EF0814641462046FFF7CDFDA36922694846EA
S31508016F001344A36118F00FFDE368B4F80690013540
S31508016F1013B120462168984718F0FFFC8046FFF711
S31508016F209DFD9DE7A3F57A73E383A36918F1FF38FD
S31508016F30013BA361DAE7022000F0E6F8A1E7C846BB
S31508016F4018F0EBFC82462046FFF746FE504618F03D
S31508016F50EAFC0023BCE7BDE8F08700BF0C2500204A
S31508016F60501900209625002010B518F0D6FC034BC1
S31508016F701C7818F0D8FC204610BD00BF96250020C5
S31508016F80014B1870704700BF96250020034B5A68BD
S31508016F90D20702D5DA69002AF9D1704700800A506A
S31508016FA030B501250024042387B029463E208DF8F3
S31508016FB00430CDE903448DF80040ADF808508DF84A
S31508016FC00A400594FCF7DCF86846FDF79DF801AB25
S31508016FD0204602A90493ADF80840FDF7A5F8204616
S31508016FE00F21FDF7C9F80F212046FDF7CBF8FDF76C
S31508016FF06BF8FFF7CBFF08220B4B9C610B4BC3F8D1
S3150801700088219A603B202946FCF7BAF8214628468A
S3150801701040F60152FCF77AFF4FF49672214628464C
S3150801702018F0A8FC07B030BD00800A5000E100E066
S3150801703008B5FFF7ABFF014B986908BD00800A50F8
S3150801704038B5044618F062FC0546FFF79FFF104B5A
S31508017050022C9A698CBFA418D41C2046FEF732FF6D
S31508017060B4F1FF3F2CBF2246621E01210020FDF725
S31508017070A7F8284618F04EFC064A137833B1044996
S315080170808B6C43F002038B640023137038BD00BF79
S3150801709000800A50DA0C0020F8B5044618F036FCD0
S315080170A0FFF774FF164B07469D6919F077FD0646EB
S315080170B00020FDF76DF8830704D4731B032B01D851
S315080170C0AE420FD10021631B022B98BFEC1C084668
S315080170D0B4F1FF3F2CBF2246621EFDF771F802206C
S315080170E019F060FD384618F015FC064A137833B1D5
S315080170F003498B6C43F001038B6400231370F8BDBD
S3150801710000800A50DB0C0020830700F0010109D535
S315080171100122064B41F002011A70054A936C23F0CD
S31508017120010393640020FDF727B800BFDB0C00209C
S3150801713000800A50830742BF0222014B1A64704736
S3150801714000900A500A4B10B5D3F8403203F00303F6
S31508017150013B012B0BD818F0D9FB0446012102206B
S31508017160FFF72CF92046BDE8104018F0D3BB10BD37
S315080171700080005010B50446FBF7D2FB0C4BA0F576
S315080171807A729A4212D84FF47A73B0FBF3F05C43E1
S31508017190084BB3FBF0F0B4FBF0F0022806D9BDE8C2
S315080171A010400323B0FBF3F0FAF7E2BF10BD00BFAE
S315080171B0FFC99A3B40420F00024A0349034800F0BF
S315080171C05BBD00BF7CBC0308C8BC0308A0BC0308A0
S315080171D00A4619B1024B00211B681847704700BFC0
S315080171E0080B00200E4B0340B3F1607F06D1B1F5C1
S315080171F0885F14BF6FF0860000207047B3F1707F77
S315080172000BD101F4E043B3F5005F06D111F4E06F49
S315080172100CBF6FF08600002070476FF0860070473C
S315080172200000C07F8A42F8B507460D4600F0218165
S315080172309B4822F0FF01814210D09A4C22F4FF7339
S3150801724023F00103A34209D0974B994206D09749E7
S3150801725022F47F7323F003038B4223D125F0FF0128
S31508017260814210D08F4825F4FF7323F0010383422E
S3150801727009D08D4B994206D08C4925F47F7323F0AA
S3150801728003038B420ED115F0FF030BD0884943F057
S3150801729000738B4206D16A4032F0FF030CBF01200E
S315080172A00020F8BD05F0FE43B3F1A06F17D102F037
S315080172B0FE43B3F1A06F40F0DE8082EA050333F4A2
S315080172C07E1340F0D88015F40040EAD0C5F3054096
S315080172D0C2F3054290428CBF00200120E1E7B3F1D9
S315080172E0407F40F0B38002F0FE43B3F1407F40F0A7
S315080172F0C28082EA050333F47E1640F0BC80394623
S315080173002846FFF76FFF002840F0B580694C12F454
S315080173107C1C04EA020438D0B4F1607FC2F3054C40
S315080173207AD16549D3B243F000738B4278D003F121
S315080173307E410439012975D960498B4276D00131DC
S315080173408B4275D001318B4274D001318B426BD09F
S3150801735001318B426AD001318B4269D003318B42AC
S3150801736064D001318B4263D001318B4262D0013145
S315080173708B4208BF402615F47C1FC5F305435BD134
S31508017380664514BF002001208BE7B4F1607F2BD13D
S315080173904949D3B243F000738B426ED003F17E4163
S315080173A0043901296CD945498B426FD001318B4289
S315080173B06FD001318B426FD001318B4263D00131DD
S315080173C08B4263D001318B4263D003318B425DD04E
S315080173D001318B425DD001318B425DD001318B4247
S315080173E008BF4FF0400C9CE7B4F1707FC3D107F496
S315080173F0E043B3F5005F05D14FF0010CC7F3022353
S315080174000CFA03FC07F4E043B3F5005FB3D1012698
S31508017410C7F302239E40AEE7B4F1707FABD1F1E723
S315080174201026A8E71426A6E74026A4E71C26A2E705
S315080174302026A0E730269EE712F47C1F01D1B3422D
S3150801744017D02A047FF52DAF634544E7B3F1106FD2
S3150801745011D125F01F6323F4702363B902F0FE43AB
S31508017460B3F1106F07D11648104040F01060A842DA
S3150801747087E7012015E7002013E74FF0100C50E7C6
S315080174804FF0140C4DE74FF0400C4AE74FF01C0C37
S3150801749047E74FF0200C44E74FF0300C41E700BFB7
S315080174A00013000600020006000900060004000693
S315080174B0FF0000020000C07F03000002080000026E
S315080174C00000FFF62DE9F8431746002288461C46B8
S315080174D000F0BCFA0546002859D1D8F80060B6F87C
S315080174E0009009F4E043B3F5804FF36808BF27F02D
S315080174F0010737EA030342D1002C48D02E4A24F06B
