:020000040801F1
:10200000C00A0020F127010837F6020837F6020857
:102010001109030837F6020837F6020837F60208F6
:1020200037F6020837F6020837F6020837F60208D4
:1020300037F602089CA7030893F4020837F6020853
:1020400037F6020837F6020837F6020837F60208B4
:1020500037F6020837F6020837F6020837F60208A4
:1020600037F6020837F6020837F6020837F6020894
:1020700037F6020837F6020837F6020837F6020884
:1020800037F6020837F6020837F6020837F6020874
:1020900037F6020837F6020837F6020837F6020864
:1020A00037F6020837F6020837F6020837F6020854
:1020B00037F6020821E302083DED020823A40308D5
:1020C0001FA4030809E502082FA4030827A4030896
:1020D00015ED02082BA403087DED0208E1ED0208CE
:1020E00037F6020837F6020837F6020837F6020814
:1020F0000D09030837F6020837F6020837F602081A
:1021000037F6020837F6020837F6020837F60208F3
:1021100037F6020837F6020837F6020837F60208E3
:1021200037F6020837F6020837F6020837F60208D3
:1021300037F6020837F6020837F6020837F60208C3
:1021400037F6020837F6020837F60208310A0308A4
:1021500001CC020837F60208C7A00308CDA0030887
:1021600037F6020837F6020837F6020837F6020893
:10217000013800D0FCE77047002370B5404C05469D
:102180008AB0E36318B1008823600BF009FD3D4875
:1021900027F0B1FC3C4E3D4B304633603C4B736006
:1021A00022F020FB0021304616F0D4F832A3D3E908
:1021B0000023A062C4E9062322F01FFBD4E9062312
:1021C000194310434FF0FF33C4E90601CDE9000184
:1021D0004FF0FF32A06A27F0DBFC02224FF0FF3104
:1021E000A06A27F0DAFC01200BF064FA4FF40073C8
:1021F00000222849A06A27F026FDB0F5007F38D1DB
:1022000000239422CDE9073309933C23CDE903321F
:1022100005939623A06A03A9069316F0B7F935B380
:10222000287C0BF07BFE0546F0B9A06A27F0ECFD98
:102230000BF01CFE0BF020FA20B14FF4807000214F
:1022400008F0F4FF0BF028FA20B14FF400600021F1
:1022500008F0ECFF22F095FA012016F0CFF80E4AB4
:102260000E49A06A22F0BCFA28460AB070BDFF20D1
:10227000D7E70725F8E700BF0DD50155200000007E
:10228000180F0020690345EC2020002045D50108E7
:1022900014200020141E002089470308C9470308A2
:1022A00010B5054C237833B9044B13B1044800E052
:1022B00000BF0123237010BD781100200000000032
:1022C0009CFF030808B5034B1BB10349034800E01A
:1022D00000BF08BD000000007C1100209CFF030827
:1022E000A3F5803A704700BF174B002B08BF134B74
:1022F0009D46FFF7F5FF00218B460F461348144A11
:10230000121A28F0E1F80E4B002B00D098470D4B25
:10231000002B00D098470020002104000D000D483C
:10232000002802D00C4800E000BF1CF07DFF200018
:10233000290000F05FF81CF063FF00BF00000800F8
:102340000000000000000000C00A0020A80E0020CD
:102350006426002000000000000000001FB50021DE
:102360000368214A23F47F4323F007039342ADF827
:102370000C10ADF80E1004D01C4A934226D004B0C5
:1023800010BD08460DF10E0303AA0EF099FB00B133
:10239000FEE7174C20460EF0F1FA00B1FEE70221ED
:1023A00020780EF025FB034600B1FEE74FF4C8622B
:1023B0000090114620780EF0F9FA00B1FEE70221F4
:1023C00020780EF029FB0028D9D0FEE7084C022126
:1023D00020780EF00DFB00B1FEE7022120780EF010
:1023E0001BFB0028CBD0FEE7A0000100A0000601E7
:1023F000D60C002008B51EF03BFB0021012001F0A7
:10240000B9FB00201EF094FA47F6FE72054BC3F8A4
:1024100008221DF03BF81EF038FB1DF039F804F0DF
:102420006DF8F8E700C007507FB50368274A23F42A
:102430007F4323F00703934244D100210822122056
:10244000234B0EF00FFB014600B1FEE703221420E0
:10245000204B0EF007FB014600B1FEE705221620D7
:102460001D4B0EF0FFFA00B1FEE70DF1070102A8C7
:102470000EF04EFB014600B1FEE79DF80D3008223C
:102480008DF810309DF80C3018208DF811309DF823
:102490000B308DF81230FF238DF81330FE238DF8AA
:1024A00014309DF80A308DF815309DF809308DF8FC
:1024B00016309DF808308DF8173004AB0EF0D2FAC4
:1024C00000B1FEE707B05DF804FB00BFA00001000B
:1024D00040A5030849A503084DA5030810B5274CDE
:1024E00001F07EF801F0D0FA236F23F0070343F0E8
:1024F000030323671DF021F9214B00209B6ADB01B8
:102500005EBF4FF480321F4B9A62D4F8203123F023
:10251000070343F00203C4F82031D4F8283123F034
:10252000070343F00203C4F82831D4F8403123F004
:10253000030343F00203C4F84031D4F8603123F0C0
:10254000030343F00203C4F86031D4F8403223F0AF
:10255000030343F00203C4F84032D4F8003223F0FE
:10256000070343F00203C4F80032D4F8083223F022
:10257000070343F00203C4F8083210BD0080005086
:102580000040005A0060005A07B501A801F0CCFCD9
:102590009DF80530012B14D19DF804308BB94FF410
:1025A0008012164B1649586E03F580535A664B6BD2
:1025B00023F0E05343F040634B63C3025CBF114B15
:1025C0005A6603F013FC1DF002F803F097FB03F0CA
:1025D000F7FB1EF099F903F0B9FB1EF08FF9FFF736
:1025E0007DFF03F0A1FB1CF0E7FF00F0FDF900F018
:1025F000EBFA03B05DF804EB03F09ABE00800050E4
:102600000040005A00A0005037B500240368224A59
:1026100023F47F4323F00703934205468DF80040DF
:102620008DF801408DF802408DF803408DF804408C
:102630008DF8054026D002F1827293422AD1B0F87B
:1026400005301B2B26D1FF2302A91A4611E90300EE
:102650001CF0A0FF012814BF41F2FC140F4B4FF0F7
:102660001B0108BF187004F0FC0228790EF010FA64
:1026700000B1FEE7094B1B7863B128790EF0E0F951
:1026800040B1FEE7054B1B7823B103B0BDE83040F5
:102690001EF006BA03B030BDA00006015A25002086
:1026A00007B508201CF0D7FF02238DF80030054B3A
:1026B000684601931CF08FFF082003B05DF804EB1F
:1026C0001CF0D5BF006A18102DE9F043434D89B0C6
:1026D00001AC0FCD0FC495E80700012584E8070081
:1026E00001213A2000F038FD3D4F0121292000F062
:1026F00033FD3C4B384601A903938DF8125001F08D
:102700006BFC2B4629460422022001F07FFB0221AC
:102710002A460846002301F079FB2B4604220321B8
:10272000022001F073FB04222B461146022001F027
:102730006DFB2D4C2D4B1026C4F834374FF002138F
:10274000C4F83037A3F58033C4F838371C2304F5B8
:102750000059C4F820374FF4487004F0F7FC04F532
:1027600080581420C9F8A06004F0F0FC2320C8F8B9
:10277000A06004F0EBFCB9213846C9F8A0601DF058
:102780007CF8002329461A460220C8F8A06001F010
:102790003DFB002302211A46084601F037FB2B4679
:1027A00000220321022001F031FB2B4600220421EC
:1027B000022001F02BFB384601F0ECFB0021292020
:1027C000C4F83417C4F83017C4F83817C4F8201701
:1027D00000F0C2FC09B0BDE8F08300BF80A7030889
:1027E00000C0055000127A0000C003500200030030
:1027F00008B500F02DF8124B12498B4212D300207D
:10280000114B12498B4218D3FFF76EFD186850F830
:102810002240586840F82240013298688242F5D33D
:102820000C33EAE70022F8E71C6844F82200013282
:102830005C68A242F8D30833E4E70022F8E700BF5F
:10284000A4FF0308B0FF0308B0FF0308B0FF0308AC
:102850004FF480414FF0FF30114B124A10B59A608F
:10286000D3F8882042F47002C3F888200E4A91669B
:102870000E4901F5005210660D4850660220C3F85B
:10288000D000BFF34F8FBFF36F8F01244FF440335D
:102890000848C0F88041D36004600B6110BD00BFE0
:1028A00000ED00E00020010800900050008000448E
:1028B000F7FF370000E100E0014B1868704700BFE8
:1028C000C40A0020084B1B6F03F00703022B04D03F
:1028D000032B05D0012B05D0FEE7044B1868704789
:1028E000034BFBE70348704700800050C40A0020F8
:1028F000C80A0020002D310108B5FFF7E3FF054BA2
:102900001B6FC3F303330133B0FBF3F0024B1860CA
:1029100008BD00BF00800050C00A0020004870477A
:1029200000B4C404014B1868704700BFC80A0020F7
:10293000054B1860054B1B6F03F00703032B01D1F8
:10294000FFF7DABF704700BFC80A002000800050C0
:1029500000487047002D31014FF0B4439868C0F330
:1029600004400C2822D8DFE800F009212121212190
:10297000071719211B1D1F000F4870479B6803F0A4
:102980004073B3F1807F13D0B3F1007F12D00B4AB4
:10299000002B08BF10467047094870470948704728
:1029A0000948704709487047094870470020704738
:1029B0000848704708487047405DC60000093D0060
:1029C0000024F400C0EA210180BA8C010048E8012B
:1029D000005A620280841E0040420F00014B1868BA
:1029E000704700BFCC0A00204FF000639B6A10B50F
:1029F00003F17842B2F5903F0ED21968094A91422C
:102A00000AD1094C227812F0FD0F08D1DB699847F2
:102A100008B90123237010BD4FF48170FBE700203B
:102A2000F9E700BF07B0CD5E5B2500204FF00053F3
:102A3000074A1A60BFF34F8F0649074BCA6802F472
:102A4000E0621343CB60BFF34F8F00BFFDE700BFD1
:102A500002020FF000ED00E00400FA0505490A68E3
:102A60001318054883428CBF4FF0FF320B601046AD
:102A7000704700BFD00A00200000042010B50121DB
:102A80003A2000F069FB012304220321002001F019
:102A9000BDF900201CF08CFE0122314B3149C3F8F6
:102AA00044244FF40022A3F550335A66D1F8FC2099
:102AB0002C4C12F080721EBFD1F8FC3023F08073D2
:102AC000C1F8FC302849D1F8803023F0030343F0EB
:102AD0000203C1F880302AB1D4F8FC3043F080738F
:102AE000C4F8FC304FF4607000F052FBD4F8F030C2
:102AF0001E4A43F00103C4F8F030D4F8FC3000F56E
:102B0000D52043F08073C4F8FC30194B00F2FC4030
:102B10001A60184B0222B0FBF3F0174B0138186112
:102B2000C3F8F0204FF48072C3F804234FF06043E1
:102B3000124A0020C3F8B02F114AC3F8802ED3F8F0
:102B4000002E42F48072C3F8002EFF2283F820206A
:102B5000D3F8002E22F48072C3F8002E10BD00BFFF
:102B600000D0035000ED00E000800050FF03004063
:102B7000001000E0F8590D00000004E055CEACC58F
:102B8000090001004FF06043D3F8802E30B5D20722
:102B900015D501240B4D8440D5F8FC2042F08072FD
:102BA000C5F8FC20D3F8002E2243C3F8002E53F8BA
:102BB0002020002AF0D003F82010002030BD112082
:102BC000FCE700BF00ED00E0024B1968024B1868FB
:102BD00014F0D4BFD80A0020D40A002037B59200E0
:102BE00004460D46019227F09BFC431C0BD060B9B4
:102BF00029462046019A27F030FC0028044808BFE7
:102C0000002003B030BD0348FBE70348F9E700BFED
:102C100010E000F021E000F024E000F010B50446E0
:102C200027F086FC431C10D088B901F0A9F923468F
:102C300020F003002044984201D1002010BD53F839
:102C4000042B0132F7D00348F8E70348F6E70348BE
:102C5000F4E700BF0EE000F021E000F024E000F017
:102C600008B51CF07FFD014B186008BDD41700208B
:102C7000014B18681CF07ABDD4170020044BD3F820
:102C80008420D206FBD4D3F88400C0F381107047AF
:102C90000040005038B5104B0546D3F880300C4644
:102CA00003F00303022B0BD0032B0DD0012B0FD10C
:102CB000FFF708FE0E2305B1286004B1236038BD7C
:102CC000FFF74AFE0723F6E7FFF7F6FD0623F2E7D4
:102CD00000231846EFE700BF0080005038B5184BBE
:102CE0000546D3F820010C4600F00700062805D859
:102CF000DFE800F0230B0F17131B1F0000231846FB
:102D000005B1286004B1236038BDFFF7D5FD052368
:102D1000F6E7FFF707FE0323F2E7FFF71DFE0723A1
:102D2000EEE7FFF715FE0223EAE7FFF7C5FD0623EE
:102D3000E6E7FFF7F7FD0423E2E70123E0E700BF42
:102D40000080005038B5174B0546D3F828310C46A3
:102D500003F00703013B052B20D8DFE803F0031342
:102D60001B0F0B17FFF7A8FD052305B1286004B161
:102D7000236038BDFFF7A0FD0623F6E7FFF7ECFD63
:102D80000723F2E7FFF7CEFD0323EEE7FFF7CAFDC7
:102D90000423EAE7FFF7DCFD0223E6E700231846F9
:102DA000E3E700BF0080005073B50D460021114BD2
:102DB0000191D3F88041064604F00304022C13D09D
:102DC000032C0CD0012C13D101A8FFF787FF10248E
:102DD0000EB1019B336005B12C6002B070BDFFF7EE
:102DE000BBFD07240190F3E7FFF7B2FD0190EFE789
:102DF0000C46EDE700800050002337B50193164BD9
:102E00000546D3F820320C4603F00703042B04D800
:102E1000DFE803F0200B11161B0000230DB1019A0F
:102E20002A6004B1236003B030BD002101A8FFF780
:102E300089FF1223F2E7FFF78FFD07230190EDE7EB
:102E40001CF0FCFB0A230190E8E7FFF7C7FD09230C
:102E50000190E3E70123E1E70080005038B5104B13
:102E60000546D3F840310C4603F00303022B0BD088
:102E7000032B0DD0012B0FD11CF0E0FB0A2305B171
:102E8000286004B1236038BDFFF7A8FD0923F6E7E9
:102E90001CF0D7FB0C23F2E701230020EFE700BF73
:102EA00000800050002337B50193164B0546D3F838
:102EB00060320C4603F00703013B032B1FD8DFE809
:102EC00003F0020E1914002101A8FFF707FF1023D9
:102ED0000DB1019A2A6004B1236003B030BD002116
:102EE00001A8FFF7BBFF1123F2E7FFF735FD07232A
:102EF0000190EDE7FFF72CFD02230190E8E70023A6
:102F0000E6E700BF00800050002337B50193164B61
:102F10000546D3F894320C4603F00703013B032B1C
:102F20001FD8DFE803F0020E1914002101A8FFF7F3
:102F3000D5FE10230DB1019A2A6004B1236003B0BD
:102F400030BD002101A8FFF789FF1123F2E7FFF749
:102F500003FD07230190EDE7FFF7FAFC0223019040
:102F6000E8E70023E6E700BF0080005038B5144BC7
:102F70000546D3F800020C4600F00700042804D8E8
:102F8000DFE800F01B0A0E1216000023184605B1F8
:102F9000286004B1236038BD1CF050FB0A23F6E71B
:102FA000FFF71CFD0923F2E71CF04BFB0C23EEE7B7
:102FB000FFF7A2FC0F23800AE9E70123E7E700BF40
:102FC0000080005038B5144B0546D3F808020C4673
:102FD00000F00700042804D8DFE800F01B0A0E12F6
:102FE00016000023184605B1286004B1236038BDDF
:102FF0001CF024FB0A23F6E7FFF7F0FC0923F2E7B5
:103000001CF01FFB0C23EEE7FFF776FC0F23800A72
:10301000E9E70123E7E700BF0080005038B5104B17
:103020000546D3F840320C4603F00303022B0BD0C5
:10303000032B0DD0012B0FD11CF000FB0A2305B18F
:10304000286004B1236038BDFFF7C8FC0923F6E708
:103050001CF0F7FA0C23F2E701230020EFE700BF92
:103060000080005038B5104B0546D3F860310C464F
:1030700003F00303022B0BD0032B0DD0012B0FD138
:103080001CF0DCFA0A2305B1286004B1236038BDC6
:10309000FFF7A4FC0923F6E71CF0D3FA0C23F2E7B0
:1030A00001230020EFE700BF00800050B0F5207F33
:1030B0001FD009D8B0F5007F15D003D868B1B0F59E
:1030C000C07F0AD000200CE0B0F5607FFAD10B4B36
:1030D000D3F88000C0F3011003E0084B186FC0F371
:1030E000033001307047054BD3F89000C0F3046003
:1030F000F7E7024B186FC0F38020F2E70080005022
:1031000002464FF48030104B10B598660020FFF750
:10311000CDFF504341F671320C4BDC69DA635A68DB
:1031200004F4803422F4401259B9094988428CBF12
:103130004FF480100020104358600CB10022DA6375
:1031400010BD0449F2E700BF00900050000003509A
:10315000005A6202002D3101430905D0012B0DD028
:10316000022B094B18BF002300F01F0041B103F5EB
:103170008053012202FA00F018607047034BF3E716
:1031800003F50053F5E700BF6880005064800050ED
:103190001FB5002180280446CDE9001100F0A5806C
:1031A00035D85E2846D85E2844D8DFE800F0A24330
:1031B00043434343434343434343434343434343DF
:1031C0004343434343434343434343434343A2AA09
:1031D000A2AAB9B9B9B9B9AAC34DD9714DAAAAAAB7
:1031E0004343434343434343AAAAAA79E3AA43433D
:1031F0004343434343434343434343B9A2A2A2DE71
:103200004D4DE8885EBE434343434399A200B0F569
:10321000B06F00F08F802DD8B0F5207F71D00CD822
:10322000B0F5C07F65D0B0F5007F65D0B0F5807F88
:1032300000F08580009804B010BDB0F5607F6AD0C2
:103240000DD8B0F5407FF5D1FFF756FB02464FF49D
:103250002070FFF72BFFB2FBF0F0400847E0B0F51D
:10326000806F5DD0B0F5A06FE4D100216846FFF714
:10327000C3FDDFE7B0F5106F77D016D8B0F5E06F7B
:1032800078D00AD8B0F5C06F6AD0B0F5D06FD1D180
:1032900000216846FFF76AFECCE7B0F5F06FC9D1B0
:1032A00000216846FFF7DEFEC4E7B0F5406F3CD072
:1032B00013D8B0F5206F62D0B0F5286FBAD10021D5
:1032C000314B0391D3F8703203F00303012B02D189
:1032D00003A8FFF7C3FD039B3BE0B0F5486FA9D1FE
:1032E00000216846FFF710FEA4E7FFF7EBFA009015
:1032F000A0E7FFF701FBFAE7FFF7E4FA02462046F2
:1033000004E0FFF7F9FA02464FF42070FFF7CEFE13
:10331000B2FBF0F0EBE701A8FFF7BCFC019AEEE787
:1033200000216846FFF7DAFC84E700216846FFF7D2
:1033300009FD7FE700216846FFF736FD7AE74FF089
:10334000E02302911B695B0705D5FFF7D5FA0290D0
:10335000029B00936EE703A902A8FFF77FFDF7E742
:1033600000216846FFF77AFD64E700216846FFF711
:1033700029FE5FE700216846FFF750FE5AE700216B
:103380006846FFF78FFD55E70080005008B58020A4
:10339000FFF7FEFE034B98429EBF4FF48032024B74
:1033A0001A6708BD005A620200A000501FB5002332
:1033B000B0F5807F019300F0C38064D85D2855D8B4
:1033C0004C2807D82D2847D823282BD8019805B09A
:1033D0005DF804FB4D381028F8D801A353F820F00D
:1033E00037350108CD330108CD330108CD3301084D
:1033F000E9340108CD330108CD330108BD3501089A
:1034000007350108AD340108B3350108CD33010893
:10341000CD330108CD330108CD330108CD33010888
:10342000C735010824380928D0D801A353F820F063
:1034300037350108373501083735010837350108B8
:1034400037350108CD3301082D350108CD3301088A
:10345000C93401086D3501083D2800F082803E28FE
:10346000B4D1002001A9FFF7D9FDAFE78028ADD185
:103470005A4B1B6F03F00703013B032BA6D8DFE871
:1034800003F05350878FB0F5F06F6AD021D8B0F5B4
:10349000B06F4BD00FD8B0F5607F00F0858095D32A
:1034A000B0F5806F47D0B0F5A06F8FD1002001A993
:1034B000FFF7A2FC8AE7B0F5D06F57D0B0F5E06F08
:1034C000CFD0B0F5C06F81D1002001A9FFF7C6FCB5
:1034D0007CE7B0F5206F71D00BD8B0F5086F4AD0FB
:1034E000B0F5106F7FF472AF002001A9FFF76AFDFD
:1034F0006CE7B0F5406F5CD0B0F5486F63D0B0F5C5
:10350000286F7FF463AF0021344B0391D3F87032FE
:1035100003F00303012B5BD0022B14BF0B461523D2
:1035200000E00523019351E70223FBE7002001A9F6
:10353000FFF73AFC4AE7002001A9FFF7CFFB45E778
:1035400002934FF0E0231B695B0705D5FFF7D4F921
:103550000D230393039BE5E703A902A8FFF77EFC75
:10356000F8E7002001A9FFF77DFD2FE7002001A962
:10357000FFF7FCFC2AE7194BD3F8003103F00303F3
:10358000022B07D0032B09D0012B0BD1FFF7CAF96F
:103590000323C7E7FFF722FA0923C3E71CF04CF81F
:1035A0000823BFE70123BDE7184601A9FFF772FB17
:1035B0000CE7002001A9FFF7C5FB07E7002001A9E0
:1035C000FFF770FC02E7002001A9FFF79DFCFDE674
:1035D00003A8FFF743FC1123A4E700BF00800050BD
:1035E0004FF48012034B5A664FF48032024B9A62BA
:1035F000704700BF009000500050005A08B5FFF718
:10360000D5FE092811D00A38012811D84FF48002BC
:10361000094B4FF6FF705A6603F5D8335B6A13F017
:10362000010F18BF4FF4FA7008BD044B1888FBE770
:103630004FF6FF70F8E700BF00900050C40C002068
:1036400038B504468020FFF7B1FE032800F08A80D9
:103650004FF48012544B4FF0A0615A6645F60E03AA
:10366000524AC2F88030524B99624FF4803103F5D0
:1036700080539962936DD903FCD4916D11F0804110
:10368000FBD1D4E900031B0543EA0063E07B03435D
:10369000207B43EA0043607B43EA0033A07B43EA9C
:1036A000801313619069D4E904531B0643EA8563D0
:1036B00000F000400343A07EE57E0343207E43EA02
:1036C0000043607E43EA00239361E069136A0028A7
:1036D0000CBF0022082223F00F0343EA000343EA51
:1036E000850343EA0203314A324D13623BD194F819
:1036F0002430916A94F82000DB000D4043EA401327
:1037000094F821102B4343EA011343F4803393626E
:10371000294B916D33EA0101FBD14FF080712448B0
:1037200081621369A56823F4700343EA05531361AA
:103730004FF00043836194F822300BB91F4B99621C
:1037400094F823303BB94FF480321C4B9A62174AED
:10375000936D5B00FCD494F825301BB1134B184AD1
:10376000C3F8802038BD022808D111611548916145
:103770004FF408524FF47F411BF0BBFF0B4994F804
:1037800022308A6A94F820001B06154043EA401351
:1037900094F824202B4343EAC20394F8232043EAFD
:1037A00002438B62D7E700BF009000500040005AF0
:1037B0000050005AC7FFFEFE030001000060005ADF
:1037C000F1A7FFFF3440005A67B5194DFF28AA6AD8
:1037D0002BD8AB6D13F4803F18BF4FF48031154BDD
:1037E00018BF99624FF080719962134B93F9006092
:1037F000AB69064423F47F0323F47F4343EA0023A9
:1038000086F3080043EA0043AB610C4801921BF0C9
:1038100070FFAB6D019A13F4803F04D04FF48031F8
:1038200006481BF066FF012000E0002003B060BDE9
:103830000040005A0050005AD70C00202840005A7F
:10384000014B93F900007047D70C00204FF48030F3
:103850000E490F4B8A6A9862886D00F003000328B6
:10386000FAD14FF080709862896D01211965074B7C
:10387000996D8907FCD4996D8807FCD5996D8907E6
:10388000FCD5044904481BF034BF00BF0040005A77
:103890000050005A000001012840005AF0B5D0E95C
:1038A00001434FF400061A4A4178057856664FF4F2
:1038B000D156022702F5B8325662164E4F2977606C
:1038C0004FF0010728BF4F2106F580567760166933
:1038D000F603FCD441EA052151611B01417B43EA17
:1038E00004230B43017B43EA41039360C37B817B49
:1038F0001B0143EA4113417C0B43017C43EA410332
:103900005360837C13B16FF4D1535362F0BD00BF99
:103910000090005000100250014B1880704700BF0B
:10392000C40C0020014B1880704700BFC20C00205F
:103930004FF4800208B5184B5A660223174A5360A9
:10394000936813F48033FBD1012822D1FEF7EAFFFC
:10395000134B984215D003F5122303F5F8639842F0
:1039600013D0104B00EB8002400AB3FBF0F0520A78
:103970000A4BDA62012218635A620022074B5A602E
:1039800008BD45F67A10084AF2E745F61A00074ADC
:10399000EEE75362F1E700BF009000500040025094
:1039A00000F0490264666666D8B80500BBCF050022
:1039B000B0F5207F10B50C4657D008D8B0F5007F81
:1039C00048D003D830B3B0F5C07F23D010BDB0F5D8
:1039D000607FFBD129492A48D1F8FC2012F080727F
:1039E0001EBFD1F8FC3023F08073C1F8FC30D0F852
:1039F0008030611E23F0300444EA0114C0F8804096
:103A0000002AE3D01D4AD2F8FC3043F08073C2F89C
:103A1000FC30DBE71BF07EFE1BF08AFE4FF48031AA
:103A2000184B174A1967136F611E23F4704444EA58
:103A300001341467FEF760FF0446FFF71FF9C0F179
:103A4000020120461BF06EFE00F02EF8BDE810408B
:103A5000FFF79CBC0A4A0139D2F8903023F0F854A1
:103A600044EA0164C2F89040B0E7054B013C196F8D
:103A700021F4806141EA84241C67A7E700ED00E09F
:103A8000008000500090005008B50121022000F095
:103A900071F81BF03FFE1BF04BFE4FF48032014BE0
:103AA0001A6708BD0090005008B54FF4C070FFF7CA
:103AB0006FFBBDE80840044988428CBF0221012108
:103AC0004FF42070FFF774BF80F0FA02034B586880
:103AD000C0F30800003818BF0120704700ED00E077
:103AE000024A536B0342FCD1704700BF00400950AB
:103AF000044A4178536F23F4407343EA0123536728
:103B0000704700BF004000500A4A10B513690446D0
:103B100043F00403136102F0CFFE1BF033FE30BF0D
:103B20001BF031FE02F0DCFE1CB9BDE81040FEF7D0
:103B3000E3BE10BD00ED00E0084A10B5136904466D
:103B400043F00403136102F0B7FE30BF02F0C8FE79
:103B50001CB9BDE81040FEF7CFBE10BD00ED00E07F
:103B6000034A0179D36E23F030030B43D3667047C9
:103B700000400050F8B504461C4BD3F88420D10611
:103B8000FBD4D3F88430C3F381139C422CD0FEF7CE
:103B900099FE012C064602D121461BF0C3FD1BF005
:103BA000E1FD4FF00072124B07465A6620461BF0AB
:103BB000EDFD4FF480630D4D621E93402B676B6EDD
:103BC0009A0103D4D5F884309B060AD538461BF0F9
:103BD000CDFD022C08D13046BDE8F84000211BF095
:103BE000A1BDD5F88430EAE7F8BD00BF0040005021
:103BF0000060005007B518B90191FEF763FE019906
:103C0000064B1B7843B1064B984205D8012003B000
:103C10005DF804EBFFF7AEBF0220F8E75C2500205B
:103C2000005A62020278034B012100201A70FFF74C
:103C3000E1BF00BF5C2500204FF0004238B5244BA7
:103C4000244C5A664AF6CD33656C014605F00105F1
:103C5000236430BB0120FFF743FF6368DB0708D410
:103C6000002415B11B4B1C4A1A6425F0ABFF2046FB
:103C700038BD1A4B58600846194B226BD20705D441
:103C8000984201D10724ECE70130F6E79842E7D1EA
:103C9000F8E70132236B13F0080305D08A42F8D10C
:103CA000F0E700220E49F5E78A42EBD020210B4ACB
:103CB00091620121A2F5805251600649084A886A42
:103CC000800603D49342DDD00133F8E79342DEE768
:103CD00000900050004009503254FFFF006009502E
:103CE00040420F004FF0004238B5164B01465A666D
:103CF0004AF6CD33144C154A656C236443780B2087
:103D00005B0043F00103D363FFF7EAFE63688A7840
:103D100023F4F87343EA02136360CA784B7943EAE9
:103D20000223A3600A798B7943EA0223236108788E
:103D3000FFF782FFEB0744BF054B236425F042FFEA
:103D4000012038BD00900050004009500040005054
:103D50003254FFFF4FF00042124B70B55D6E03F519
:103D600080535A664AF6CD3304460F4980204E6C84
:103D70000B64FFF7B5FE0B6A23F00F030F2C94BF03
:103D8000234343F00F030B62F30744BF074B0B645D
:103D9000002DA2BF4FF00042054B5A6625F012FFDE
:103DA00070BD00BF00800050004009503254FFFF3A
:103DB00000A000504FF00042104B70B55D6E03F54F
:103DC00080535A664AF6CD3304460D4980204E6C26
:103DD0000B64FFF785FE0B6A23F4F85343EA0423D0
:103DE0000B62F30744BF074B0B64002DA2BF4FF0DB
:103DF0000042054B5A6625F0E5FE70BD008000507C
:103E0000004009503254FFFF00A000502DE9F0415E
:103E100005460F461E4690464AB101233022194CF2
:103E20008B4002FB00443EB304F5825423600F2113
:103E3000072F05EB450388BFA7F108044FEA0313DA
:103E4000114895BFBC00A40004330C3308FA04F2F7
:103E5000A14018441BF09BFCB8F1000F0AD10121CE
:103E60003020084A01FA07F700FB05223EB102F5AF
:103E700082521760BDE8F08104F50154D6E702F5DF
:103E80000152F6E700C0035030C003504FF48032B7
:103E9000054B9A6641F6713203F51C33DA63012251
:103EA00003F50053DA6070470090005041F671321C
:103EB0000121064BDA6303F50052D1600022DA6378
:103EC0004FF48032A3F518339A6670470000035010
:103ED000013831289ABF024B185C0020704700BFA0
:103EE00010A8030810B5C2F30623044602F0070227
:103EF00041B942EA03220B4B42F44022063443F814
:103F0000242010BD184611461BF053FC01461846EC
:103F1000FFF7DEFF034B41EA0020163443F824008C
:103F2000EFE700BF008003504FF48032064B5A6623
:103F300003F5E6239B69C3F38512827003F03F0209
:103F40001B0B4270037070470090005040F6B73270
:103F5000064B5B689BB293429FBF4FF47A72B3FBF0
:103F6000F2F3034AD05C88BF002070470080E00F66
:103F700042A80308014B986CD96C70470080E00F91
:103F80000120034B9B680A3303F01F0398407047DE
:103F90000080E00F012100F5805310B5596040F614
:103FA000AA6341F2050243610023094C8360C365A3
:103FB000C26000F500520361C361C3649464054CA0
:103FC0008365A04204BF03654365516010BD00BF17
:103FD000FFFF010000C0055038B50D46FFF7DAFFBE
:103FE0000122A97B00F580535A602A8A8368002940
:103FF00014BF4FF48061002142F0010213432A7D77
:104000000B43002A14BF4FF00052002283608368E4
:10401000044613438360AB7C5BB1194B984202BFEB
:10402000EA7CA3F51033C3F8C821C36D43F08003C5
:10403000C3652B7B2046D5E9011243F48053E3602E
:104040001BF00BFC6B7B0BB1102363616B7D1BB111
:10405000A36843F48033A360AB7D1BB1A36843F432
:104060000043A360EB7D2A7E1B07120503F0E043AB
:1040700002F4E0021343A3652B78636138BD00BFEF
:1040800000C00550054B9A689107FCD45A68920706
:10409000F9D4DA69002AF6D1704700BF00800A50CF
:1040A00008B5FFF7EFFF0122024B03F580514A608C
:1040B0001A6108BD00800A50074B5A68012A0AD1CC
:1040C0005A68D20702D5DA69002AF9D102221A61A8
:1040D0000122024B5A60704700800A5000A00A502B
:1040E00010B5064CFFF7CEFF6368012B03D1FFF735
:1040F000E3FFFFF7C7FF0378E36010BD00800A50BD
:10410000E8B94A680B7812B1127843EAC2034A78D8
:10411000002A14BF0222002213438A6812B11278C7
:1041200043EA82138A78002A14BF04220022134330
:10413000CA6812B1127843EA4223014A9364704775
:1041400000800A5008B9014B5964704700900A502A
:1041500008B9014B5964704700A00A5008B9014BD7
:104160001964704700A00A5010B9024B186C7047D0
:104170000020704700800A5048B911B1012903D0CE
:104180007047044BD86C7047024B186D7047002085
:10419000704700BF00800A5040B911B1012903D017
:1041A0007047034BDA647047014B1A65704700BFD4
:1041B00000800A5038B50446054D25F029FD0FCC86
:1041C0000FC594E8030085E80300002038BD00BF58
:1041D0008818002047F6FF739A42F0B566D001298F
:1041E00066D8344DCF0015F8313005EBC100012BF6
:1041F000847813D10025C3781B1B9D4202D3E0189D
:10420000C0B2F0BD591B4668A3EB510136F91160ED
:104210009642D4BF0D4601F1FF33EEE74068002817
:10422000EFD0B0F90030934204DBB0F90230934292
:10423000B8BF134682883D44FF2A19BFC8214FF0FA
:10424000280CB0F90610B0F908C0A1EB03020CBFAE
:104250000126002692FBFCF26D78324412B29542A0
:1042600001DD002A01DA6A1E12B24FF47A7700EB00
:10427000C206F188B668013213FB016112B221EA6D
:10428000E1715C319542B1FBF7F104DD00EBC20650
:10429000B6888E42EBD200EBC20232F8040C8842A0
:1042A00028BF0846A04238BF2046A9E7FF20A8E75C
:1042B0000020A6E7881800200129F0B553D82B4824
:1042C00000EBC10410F83110636801290FD1E078C8
:1042D000A478904294BFC4EB0001C4EB0201001B20
:1042E000CAB28242C8BF002233F91200F0BD002BCF
:1042F00039D0A178914202D3B3F90200F6E7E17810
:10430000B3F900009142F1D999886478A1F1FF06D0
:10431000013C714203F10405E4B2714103F10C0761
:104320001FFA82FCCEB2B44216D805EBC1014FF49D
:104330007A756A43B1F902404968521A04EBD471A4
:1043400002EB610292FBF4F29042CFDBB3F9020080
:104350009042CBDC10B2C9E737F831E04E1CE6459D
:10436000E3D33146DEE70248C0E700BF88180020EB
:104370000080FFFF0148FFF71DBF00BF48A80308EA
:1043800000487047C60C00207FB50222084B09493F
:10439000CDE901234FF04073CDE90313052301A9B3
:1043A0004FF0FF30059325F06BFC07B05DF804FB80
:1043B000006A18000003040008B5B0B14FF4806231
:1043C0000B4B9A661BF02BFA4FF098435A6CD202B3
:1043D000FCD54FF48062586D064B10F470209A663D
:1043E00004D0BDE808401BF05ABA212008BD00BF28
:1043F0000090005000A000502DE9F0418CB088469C
:10440000DDE912761D460446002847D0002945D034
:10441000002F43D0002E41D013F00F033ED120488F
:104420002049A360002A18BF0146E361C4E90013D4
:10443000404609A91BF027FB68BB204609991BF0E1
:10444000E5F9294620461BF0E1F96946404600F0AF
:10445000E7FA00BB694620461BF0C4F9404603A9B1
:104460001BF0DFFBB8B9204603A91BF0BBF9069788
:104470000127204645F0005506A9079708951BF02F
:10448000B1F9204609A909960A970B951BF0B4F9D2
:104490002046FFF791FF0CB0BDE8F0812120FAE73C
:1044A00000010104000100042DE9F0438DB08846AD
:1044B00015461C460746DDF85090002850D00029CC
:1044C0004ED0002A4CD0B9F1000F49D00B68103BF8
:1044D000102B45D8012606FA03F303F0013323F02D
:1044E0008073002B3CD000231E4A8360C0E9002368
:1044F000C36109A940461BF0C6FA70BB384609994A
:104500001BF084F9214638461BF080F96946404685
:1045100000F086FA08BB694638461BF063F940464E
:1045200003A91BF07EFBC0B9384603A91BF05AF95A
:1045300044F00054384606A90695079608941BF0E7
:1045400051F9094B384609A9CDF824900A960B93E6
:104550001BF052F93846FFF72FFF0DB0BDE8F0838E
:104560002120FAE70000040410000020F0B50C46FA
:1045700017461E46054695B0002874D0002972D013
:10458000002A70D0002B6ED0036B0F2B5BD800235A
:10459000364A3846C4E90023A360E36111A91BF041
:1045A00072FA00285BD1204611991BF02FF9296B74
:1045B00020460F2984BF01F00F0110311BF026F9AE
:1045C000384602A900F02CFA002848D1204602A95A
:1045D0001BF008F9384605A91BF023FB00283ED143
:1045E000204605A91BF0FEF80122214B08950992EF
:1045F0000A932B6B05F1100003F00F0141F00051FD
:104600000B900F2B0C920D910E900F9243F00052D5
:10461000109226D90A9B08A923F0005320460A933A
:104620001BF0E0F80BA920461BF0DCF801231196E3
:1046300012930F4B204611A913931BF0DDF820466F
:10464000FFF7BAFE0BE000F1200301900093012276
:10465000102339462046FFF7CFFE002897D015B02B
:10466000F0BD0EA9DFE72120F9E700BF0000040438
:10467000100000202DE9F04F9BB00D469146984662
:104680000646DDF890A0002800F0B380002900F075
:10469000B080002A00F0AD80002B00F0AA80026BF1
:1046A00002EB0A031B09B3EB121F02F00F0700F025
:1046B00098800023504A8B60C1E90023CB614846B3
:1046C00017A91BF0E0F90446002840F0868007EBAC
:1046D0000A0323F00F0B2846179900931BF096F856
:1046E000594628461BF092F8484602A900F098F96E
:1046F0000446002871D1284602A91BF073F84846E9
:1047000005A91BF08EFA0446002866D14FF0010976
:10471000284605A91BF066F8384A284608A90896D5
:10472000CDF824900A921BF05DF847F00051ABEBF6
:10473000070706F1100347F000570B93CDF83090B0
:104740000D91CDF83880CDF83C9010970D99284602
:1047500021F000510D910BA901931BF043F828465D
:104760000EA91BF03FF8ABF11001244A41F00051B3
:104770001194CDF84890139106F120011491CDF8D1
:10478000549016921399284641F080411391139941
:1047900021F00051139111A91BF02EF8284614A9FD
:1047A0001BF02AF8154A17A928461796CDF86090ED
:1047B00019921BF021F82846FFF7FEFD009B0446E6
:1047C000ABEB0301A3EB0B02019B514418464144A0
:1047D00025F053FE336B5344336320461BB0BDE8D2
:1047E000F08F103052464146384425F046FE0024F2
:1047F000F0E72124F1E700BF0302000410000020CD
:104800002DE9FF4700230E46174604460093002873
:104810005BD00AB1002958D037F0030807F0030A2B
:1048200025D04FF000094FF0E063C4E900390123BF
:1048300001962046029301A948F00053C4F808905D
:10484000C4F81C9003931AF0D7FF414620461AF093
:10485000DDFF2046FFF7B0FD054640B14246494620
:10486000304625F031FE284604B0BDE8F0874FF011
:104870000009BAF1000F2AD04FF0E063C4E9003913
:104880000123CDF804D00293124B204601A9C4F8AD
:104890000890C4F81C9003931AF0AEFF0421204640
:1048A0001AF0B4FF2046FFF787FD054608B13A46E7
:1048B000D5E7034600994644DA00013321FA02F2B3
:1048C0009A4506F8012BF7D1CDE72125CBE75546D0
:1048D000C9E700BF04000020F0B50F4616461D468C
:1048E000044693B010B9212013B0F0BD0029FAD0CE
:1048F000002AF8D0002BF6D0002331461A4638465D
:104900001BF076F80028EFD1304602A91BF006F81C
:104910000028E9D1EB68022B0AD039683F48029A97
:1049200081426B6902D01830814270D19A42DAD844
:104930002B68002BD7D14FF060623846C4E90023C2
:10494000A360E36101A91BF09EF80028CCD1019976
:10495000204621F4F06101911AF058FF694628467B
:104960001BF091F80028BFD1204600991AF04EFFA5
:10497000384609A900F054F80028B5D1204609A905
:104980001AF030FF38460CA91BF04BF90028ABD1C8
:1049900020460CA91AF026FFEB684BB1284606A961
:1049A00000F03EF800289FD1204606A91AF01AFF11
:1049B000304603A91BF035F9002895D1B368DA0415
:1049C0000CD59B0427D50621F36932691B6801FBCE
:1049D00003225B0043F0005303920593204603A992
:1049E0001AF000FF28460FA91BF01BF900287FF4DE
:1049F0007BAF20460FA91AF0FFFE03252046FFF7E4
:104A0000DBFC01287FF470AF013DF7D16CE7B3EB1D
:104A1000420F8DD267E7292066E700BF200000B073
:104A2000A0B199B101234B60C368013B012B0AD8A7
:104A30008069074B18B1086000208B607047054AF9
:104A40000A608B6070474FF00053F5E721207047F4
:104A500008000020F4B9030870B50E461546044658
:104A60008AB000285BD0002959D0002A57D00123F2
:104A700029461A4630461AF0BBFF00284DD1B368CC
:104A800013F4C04F4BD0AB6803F4C043B3F5005FE1
:104A900045D1254BA060C4E90030E06107A930464C
:104AA0001AF0F1FF002838D1204607991AF0AEFE1F
:104AB000304601A9FFF7B4FF78BB20461AF092FEFA
:104AC000304604A91BF0ADF838BB204604A91AF003
:104AD00089FEEB681BBBAB6803F4C043B3F5005F12
:104AE0001DD1694628461AF04AFFB0B9009B6A6991
:104AF0009A4216D32A6943F00053079201222046B6
:104B000007A90892032509931AF076FE2046FFF7BD
:104B100053FC012801D1013DF8D10AB070BD21201C
:104B2000FBE71D20F9E700BF0000010205289ABF3E
:104B3000014B185C00207047FCB9030830B5154BD9
:104B400087B00293144B0390049346F611030D466D
:104B5000059300F06DF91428044616D168461BF041
:104B600031FA4FF0A843032202A95A6319601D616C
:104B70009A63DA6B9207FCD1142C02D168461BF0C1
:104B80002FFA00F089F9044601E00028E9D0204618
:104B900007B030BDA0180020040000202DE9F04F20
:104BA000B1B005468C46E9466E4F3B9EDDF8F8E015
:104BB000409C07F1100AC846386879680837A8E8A9
:104BC00003005745C146F6D10EEB0208C8F10009B3
:104BD00009F00F09002E00F0AF80774207F00F07B1
:104BE0000121DDF8FCB0C4F1100ACDF810B0059138
:104BF00044F0005106914FEA0A2101F4F85141F0C6
:104C00002101079106B96B460893002D40F096806C
:104C1000002C00F0938004AB0993002E00F09080EC
:104C200046F000530A93002D40F08D80002C14BFF5
:104C30000123212343EA07230B9308A942F00053E1
:104C4000CDF830C03D980D910E934FEA092343F003
:104C500041030F93109002B10CA9002A16BF002245
:104C60004FF00052412342EA0E0211911292139327
:104C70003C9B3D4A149310AB15933C4B002116937B
:104C800040F6110317933A4B002D08BF13461893B3
:104C900014AB1993374B10221A9311231B931CAB9F
:104CA000184625F011FC01221D924AF080421E9206
:104CB00000220346239205B9EB46102C08BF0123BE
:104CC0000DF1900A102200215046CDF880B02193BA
:104CD000229425F0F9FB002C37D020AB002125933E
:104CE0008F4218BF534647F0804226923A9A2CA82A
:104CF0008A422892299313460CBF4FF080430B46FB
:104D0000102233432B912A9325F0DEFBFEB9534644
:104D1000C8442D932CA948F0804318A82E93FFF780
:104D20000DFF30B92DB90346A34212D1002818BF98
:104D30002C2031B0BDE8F08F102751E701236BE73D
:104D400047F000536EE7212374E70123C6E728AB41
:104D5000DEE703F1C0026A4412F8C02C01331043AD
:104D6000E2E700BF02BA030814BA030810000020EB
:104D700018BA030804000020F0B5C0299FB0249E93
:104D80004FD0B1F5807F04D0802941D029201FB0B9
:104D9000F0BD40F2344440F21445002E08BF2C46CA
:104DA0002127102501940124029603940495059768
:104DB000259F069706B102AC079401240895099433
:104DC0000A9221220B940C950D92174A0AAC0E926E
:104DD000164A0F94109242F61102119212931394F4
:104DE0001495159201AA1692CBB112AB1793042316
:104DF00018931123199316AB1A901B9340F61103C5
:104E0000C9081C911AA806A91D93FFF797FEBEE7D3
:104E1000002E14BF4FF486644FF48264C0E70EABDB
:104E2000E4E70F20B3E700BF1CBA0308100000102E
:104E300038B5164B5A6E42F004025A66D3F88022F7
:104E400042F00102C3F88022114B5B68C3F30803F0
:104E500043B14FF0A842D36B13F0430FFBD114249E
:104E6000204638BD4FF0A843DC6B14F04304FBD15F
:104E7000084D2B681BB90421284602F053FC2B680F
:104E8000013343F000432B60EAE700BF008000508D
:104E900000ED00E0A0180020014B00205B68704787
:104EA00000ED00E0012300F01F02A0F506200949F3
:104EB000A0F550604009934051F820201A4341F872
:104EC0002020054951F8202022EA030341F8203030
:104ED000704700BFA4180020B81800200121A0F5D9
:104EE00006230F4AA3F550635B0900F01F0001FA87
:104EF00000F052F8231008430A4942F82300D1E990
:104F00000030034488680344C868096903445B1897
:104F100002BFC2E90033C2E902331361704700BF28
:104F2000B8180020A41800202DE9F04FA9B0029273
:104F30001D46DDE9326704460822CDE90301414000
:104F400021FA02F34B40980702F1080218BF9B00B8
:104F5000202A1C44F4D18123B4FBF3F303EBC313E5
:104F6000E41A7A4B04F506241B7804F55064002BF0
:104F700040D1FDF729FE014620B16FF0910029B024
:104F8000BDE8F08F4022059008A825F09DFA402248
:104F9000059918A825F098FADFF8C891DFF8C8A19C
:104FA0004B4603F10F0B102208A9DAF80000CDF8E8
:104FB00000B0059324F0E6FB00220146059B09F1B1
:104FC00010090DF1200891424CD1CDF800B010220B
:104FD000DAF8000018A924F0DEFB4FF0000B0346BE
:104FE0000DF160085B4549D1594B9945D8D1012253
:104FF000564B1A704FF081084FF00009DFF868A196
:10500000A4F506235349A3F55062520951F8221022
:1050100004F01F0C21FA0CF1C90744D44E4951F891
:10502000220020FA0CF010F0010030D0B9F1000F8E
:1050300008BFA146A3F6FF448123B4FBF3F303EBBF
:10504000C313E41A04F50624B8F1010804F550640A
:10505000D6D1029BEBB1B9F1000F1AD0349BC3F843
:1050600000906DE058F8040BCDE906230591FFF799
:1050700019FF069A079B05990132A4E758F8040B1B
:1050800005930BF1010BFFF729FF059BAAE7029B94
:1050900013B96FF08B0072E7349BB9F1000F4ED05B
:1050A000C3F800906BE70EB1002333600FB100230B
:1050B0003B604FF0100B00232A462146DAF800002F
:1050C000CDF800B012F0C8FE08BB0EB1C6F800B0B3
:1050D0002B68224A934224D166B15FB13B462146F8
:1050E000DAF8000018AA12F00BFF80B93B683268AA
:1050F0009B1A3B60D5E90223DDE90310834208BF18
:105100008A4216D0A4F50624A4F6FF4494E7144B73
:10511000984206D01233984203D0133B9842E9D00C
:105120002BE72146DAF8000012F030FF0028E1D02A
:10513000AFE7029B13B16B68012B03D0349B1C605B
:1051400000201CE76FF0840019E700BF5D250020F8
:1051500000710800A4180020B8180020105D175E28
:10516000FFDF00F0006D0800D40A00202DE9F04FA9
:1051700087B08246894698461646DDF840B02AB187
:10518000002B4ED040F26C739A424DD8BBF1010F08
:105190004DD8002406F110073946012005941BF074
:1051A0009AFC0546002845D021463A4625F08CF960
:1051B00005ABCDE9014300942B46012250464946F8
:1051C000FFF7B2FE044680B110F18C0F08BF6FF0FC
:1051D0008D043A460021284625F076F928461BF032
:1051E0008BFC204607B0BDE8F08F144BC5E902A93F
:1051F0002B60C5F804B02EB13246414605F11000CF
:1052000025F03BF90E483B462A460599006812F006
:105210008BFD18B90598FFF745FEDAE76FF09104AA
:10522000D7E76FF08604DCE76FF09104D9E76FF001
:105230008504D6E76FF08C04D3E700BF105D175EDE
:10524000D40A00202DE9F0438DB08146DDE91478C1
:105250000C4615461E469BB1B8F1000F05D16FF004
:10526000860420460DB0BDE8F083002FF7D0B7F1DB
:10527000005FF4D3C3F1005303F580239F42EED8BF
:105280001022002108A825F01FF9002207AB029385
:1052900005AB019306AB21460093484608ABCDE928
:1052A0000522FFF741FE04460028DAD10599DEB158
:1052B000A94203D80029D2D115B1D0E70029FBD0EB
:1052C000491BB14228BF3146069B0948C8F8001067
:1052D00000913A46079900682B4412F0BDFD002862
:1052E00018BF6FF09104BCE7A942E9D2B7E700BF4D
:1052F000D40A002030B58DB00C460546102200219E
:1053000008A825F0E1F8002207AB029305AB019352
:1053100006AB21460093284608ABCDE90522FFF7EE
:1053200003FE0446D0B9099B012B1AD0104B0799F4
:10533000186812F02BFEB8B9012207980D49A0F5A4
:105340000623A3F550635B0900F01F05AA4051F83E
:1053500023506A4041F82320FFF7C0FD20460DB0DE
:1053600030BD6FF08404F9E76FF09104F6E700BFF9
:10537000D40A0020A41800202DE9F04F93B0044671
:10538000DDE91E75DDE920689346DDE91C028A46E9
:10539000DDF8889029B96FF08604204613B0BDE887
:1053A000F08FBBF1000FF6D00FB9002DF3D108B983
:1053B000002AF0D116B9B8F1000FECD1B9F1000F05
:1053C000E9D02D4A934244D12388B3F5105F40D1F0
:1053D0002022002102A825F077F8202200210AA827
:1053E00025F072F802A81AF08AFA78BB20465A46CD
:1053F00051460AAB00F00EFA04460028CDD10A98B7
:105400001AF05CFE04460028C7D115B9C9F800009F
:10541000C3E7B7422CD27B199E4229D24545BAD860
:1054200039462A46304625F035F8374615F00F0A3A
:10543000B1D1CDE900762B4652460AA902A8FEF763
:10544000DBFF074640B9C9F80050A6E76FF09204A9
:10545000A3E76FF08504A0E742465146304625F0A9
:1054600033F8012FC9F800A0F0D16FF08B0494E756
:105470004545DBD98FE700BF004440042DE9F047E4
:10548000C2B00C4606460021154601A820229A46C5
:10549000DDF82891DDF830814E9F25F015F82022A7
:1054A000002109A825F010F82022002111A825F0DC
:1054B0000BF82022002119A825F006F800218022EF
:1054C00022A8219125F000F8002C5BD0002D59D0A6
:1054D000B9F1000F56D0B8F1000F53D0002F51D0C2
:1054E0002188628801F4E043B3F5804F4AD0314B04
:1054F0003148334043F01063834205D06FF0850498
:10550000204642B0BDE8F087D31DBAEBD30F4FEA77
:10551000D30637D34D9B9E4246D847F21213994289
:10552000ECD1B2F5807FE9D1244B4B98099309F176
:1055300001030D938423023020F0030016937300BF
:105540000E9012932046524629460DF1840901AB74
:10555000CDF8549000F05EF904460028D0D10B9BA2
:10556000119043F4005319A80B931AF0C8F9F0B93D
:1055700011AB09AA01A919A8FFF7AEF9054620B198
:105580004828BBD06FF08604BAE732464946404609
:1055900024F073FF2A4609EB05030135852D01D15F
:1055A0003E60ADE71A70F6E76FF08904A8E76FF088
:1055B0009204A5E70000FFF6000002092000008029
:1055C000F0B50D4614461E46C3B010B96FF0860004
:1055D0000DE00029FAD0002AF8D0002BF6D003887D
:1055E00003F44F42B2F5824F03D06FF0850043B011
:1055F000F0BDDAB2122AF8D123F0FF03B3F5E24F7F
:1056000028D14388336003BBE30033603368B3F5CC
:10561000807FEAD10023424A281914441A4614F81C
:10562000016D10F8011D0A43891B0CBF4FF0FF36B6
:105630000026854203EA060343EA0103EFD1002A6C
:10564000C4D0002BC2DA0020D1E70733B4EBD30F6C
:10565000DCD0BBE7B3F5824F5FD10B78042BB5D11B
:1056600020220021684624F02FFF68461AF047F9EF
:1056700000284FD1842200210DEB0200209124F05C
:1056800023FF20220123882700210DEB0200013C8B
:105690008DF88030013524F017FF202200210D9471
:1056A00010A8E4000C95640824F00EFF20AD202221
:1056B000002118A81495159724F006FFE02CCDE9D9
:1056C0001C57346003D0B4F5807F7FF47FAF154B57
:1056D0000734089310934FF400530A934FF4804318
:1056E000E408129308AA18AB6846640010A919943C
:1056F000FFF7F2F833680733DB085A0043B9002894
:105700003FF475AF62E705F8013B013AFBD2F6E7DB
:105710000023FAE76FF0920069E76FF0960066E702
:1057200020BA030820000080F8B5134642880D46D1
:105730000732072A4FEAD20104D0A94202D06FF003
:1057400086003AE044680688C7682022184600218F
:1057500024F0BAFE240A034614B1012C52D1C460CD
:10576000002DECD041F20102964205D0B6F5885FDB
:1057700002D0B6F5905F0ED15D60002C45D017F0D9
:10578000020007F0010116D1B9B99A68084642F043
:1057900080729A6011E0B6F5105F07D1182D03D022
:1057A000202D01D0102DCAD11D60E5E706F44F422F
:1057B000B2F5824F02D06FF08500F8BDF2B2122A26
:1057C000F9D1202DF7D1124A26F0FF06B6F5E24FA7
:1057D0001A600DD14FF4804217F4705F9A600DD0BB
:1057E00017F4864FE7D19A6842F480629A60C4E762
:1057F000B6F5824FA3D14FF40052EDE79A6822F438
:105800008062F3E76FF08B00D7E72046D5E700BF53
:10581000200000802DE9F041154600221C46436817
:105820008AB01B0A07460E46019204D0012B59D0BC
:105830006FF08B0094E0008820F0FF03B3F5824FF7
:105840004ED17A880732D20801921AF043FC002820
:1058500000F001810B78042B02D06FF086007FE00E
:10586000013DB5EB420F06F10106F6D1224638465E
:105870000199FFF759FF002872D10335C4E90306E7
:1058800025F003056561019D002C00F0C880002D06
:1058900000F0C5802022002102A824F015FE294630
:1058A000384602AAFFF740FF002840F0B88023687E
:1058B000029A9A4240F0B3806368039A9A4240F099
:1058C000AE80A368049A9A4240F0A980A369089A1E
:1058D0009A4240F0A480E369099A9A4240D09EE03F
:1058E0000195C3E7032DB8D991F80080B8F1010FF5
:1058F00040F0B4804978002979D0F739082997D841
:1059000001A353F821F000BF9F590108675901080E
:105910003158010883590108315801082D590108EF
:1059200031580108BB590108D55901081C22002132
:1059300003A824F0C9FD4B4B4FF4105002930323EE
:10594000CDE90403FC2306930AAD02AB1A4603CA51
:10595000AA4220606160134604F10804F6D10020D9
:105960000AB0BDE8F0811C22002103A824F0ACFDA0
:105970003C4B4FF4105202930323CDE90423F82348
:10598000E1E71C22002103A824F09EFD10234FF024
:10599000807E02930323CDE904E3FA23D3E71C229C
:1059A000002103A824F090FD20234FF000770293FC
:1059B0000323CDE90473F723C5E71C22002103A8C4
:1059C00024F082FD274B284D02930323CDE9045395
:1059D000FE23B8E700211C2203A824F075FD214B0B
:1059E000224902930323CDE90413FF23ABE72B2DB8
:1059F0007FF633AF2022204624F066FD7368103D09
:105A00002360B3681036636056F8043C2046C4E94E
:105A100002382661656101A919F080FF28B12022B2
:105A20000021204624F050FD17E73A88019B02F43C
:105A30004F41B1F5824F08D1D1B2122905D122F0E0
:105A4000FF02B2F5824F08BF5B0062691C339A42C5
:105A5000BFF419AFE3E76FF0850081E76FF09100C5
:105A60007EE700BF200000800044000200440003E5
:105A70002DE9F04790B0DDF8608006460C4692466E
:105A80001A9FB8F1000F05D16FF08604204610B0C0
:105A9000BDE8F0870393002FF6D00028F4D0202231
:105AA00000210DEB020024F00FFD08A819F027FFDC
:105AB000039B10B16FF09204E8E714F47C1FC4F369
:105AC00005452CD0102DDFD8199A954237D81F4A9A
:105AD00024F47E14944235D100220DF11009CDE951
:105AE0000422CDE9062231465246CDF8009008A89E
:105AF000FEF7DAFC0446B0B92A464946404624F08F
:105B0000BCFC224609EB04030134112C09D100240A
:105B10003D6008A819F0FDFE0028B7D0CAE710259F
:105B2000D2E71A70EEE7212806D0012814BF6FF0E3
:105B300092046FF08B04ECE76FF08604E9E76FF0F6
:105B40008904A3E76FF08504A0E700BF0002C0034B
:105B500070B50E461446054610B96FF0860070BD4C
:105B60000029FAD03822002124F0AEFC094B24F49D
:105B70007E129A420AD13388B3F5105F06D1C4F37E
:105B80000543102BE9D800202C60E8E76FF0850072
:105B9000E5E700BF0002C003F0B50F4616461D46FC
:105BA00004468BB070B302B963BB2022002102A867
:105BB00024F08AFC02A819F0A2FEA8B92368134AAF
:105BC00023F47E13934214D14DB133463A460095E7
:105BD00002A9201DFEF74EFD01280DD078B9002442
:105BE00002A819F096FE08B16FF0920420460BB09F
:105BF000F0BD6FF08804F3E76FF08B04F0E76FF00F
:105C00009204EDE76FF08604F0E700BF0002C003E6
:105C10002DE9F0418CB0884616460446129F0028B4
:105C200041D0002A3FD0002B3DD0002F3BD0102B7D
:105C300028BF10231D46036813F47C1FC3F30542DD
:105C400002D0954228BF15461A4A23F47E13934288
:105C50002CD12022002104A824F036FC002304A823
:105C6000CDE90033CDE9023319F049FE40B96B4666
:105C7000424604A9201DFEF779FC20B100233B60B9
:105C80006FF092000CE004A819F043FE04460028CF
:105C9000F4D12A466946304624F0EFFB20463D60A9
:105CA0000CB0BDE8F0816FF08600F9E76FF0880076
:105CB000F6E700BF0002C0030023C36001F1380310
:105CC000036120230A6843618B6D0B4922F47E1225
:105CD0008A42436003D001F580718A4208D1102BBB
:105CE00002D1036000207047182BFAD0202BF8D087
:105CF0006FF08800704700BF0001C00307B5094B73
:105D000018689A889B7900906846ADF804208DF851
:105D10000630FDF7E7FF0920FEF71CF8002003B06E
:105D20005DF804FB40BA030813B50024064A684630
:105D3000536F23F00103536700948DF80440FDF77F
:105D40000FFF204602B010BD0040005030B58BB0B0
:105D50006C46174D0FCD0FC40FCD0FC495E803004F
:105D600084E80300134BD3F84C21120318D4D3F862
:105D70005041E4B28DF81940FDF762FD204480F3F4
:105D800008008DF818000C48FCF7D2FD6846FDF7B6
:105D900057FC4FF4FA70FDF7C5FD00200BB030BD85
:105DA000064B1C884FF6FF739C4208BF5F24E1E757
:105DB00048BA03080080E00FC01753020001E00F4B
:105DC00030B5094D87B001AC0FCD0FC42B6801A8C9
:105DD00023602C238DF80530FDF760FD6420FDF76E
:105DE0009BFD002007B030BD70BA03086FF00402BD
:105DF000502110B50A480B4C12F0800FD3B21BBFD4
:105E000003F00F03043BA3181B1802F101020CBF9F
:105E100083F8001319764C2AEED1002010BD00BF84
:105E200000ED00E000E100E038B500F0DDFE0446E2
:105E3000E0B900F09DFF4FF4167343430C4803F59F
:105E4000742303F23F23B3FBF0F30A4A0A491360B9
:105E50000A220D680948013A12F0FF0240F8043B9B
:105E6000F9D103EBC3022B4413440B60204638BD29
:105E700040420F0004190020D4180020D818002038
:105E8000012208B5034B1A701AF0A6FD024B1860E8
:105E900008BD00BF5E250020001900200122024B32
:105EA0001A70024B186070475F250020D018002040
:105EB000F8B5234D234C2A78237812B9002B34D11E
:105EC000F8BD23B100232B7038E02B784BB31AF0C8
:105ED00083FD1D4B1B68C01A1C4B1D4F18601B4BCC
:105EE0001C481968DFF878C0012938BF0121196002
:105EF000037857F8232047F82310561A0A21DCF8B4
:105F000000200133921BCCF800200932B2FBF1F2E1
:105F1000114EDBB23260B3FBF1F201FB12330370BE
:105F2000D0E71AF059FD3368D5E71AF055FD0B4E4E
:105F30003368984201D9002BC7D100232370BFE7F3
:105F40005E2500205F25002000190020CC180020CD
:105F5000D81800206025002004190020D018002047
:105F6000D4180020014B1868704700BF04190020A6
:105F700020234FF48012042110B50F4C0F4884F8F1
:105F80002C330F4B5A660F4B03F500525067516785
:105F9000106711674FF48052C4F8842162609A1828
:105FA000506751679A6A22F000729A629A6A42F4C4
:105FB00010629A6210BD00BF00E100E0010000A085
:105FC000009000500040005A044B9A6D12F0050FEB
:105FD00002D10028F9D17047012070470040005AD3
:105FE000164B10B51C6F14F0040211D003F50053CA
:105FF0001A6708229A62FFF75BFF00F0B5FB00F01A
:1060000095FB012000F0A8FF04210020FEF7A6F870
:10601000E30706D501220A4B1A67FFF749FF00F094
:1060200085FB14F000521CBF054B1A67002CBEBF45
:106030004FF00042024B1A6710BD00BF0040005AEB
:106040000060005ABFF35F8F074B5A6A22F4803218
:106050005A62D3F8942022F00102C3F89420BFF3CF
:106060004F8FBFF36F8F704700ED00E070B526488B
:10607000264CFFF7E7FF844208BF4FF08043244AD5
:1060800018BF20F01F03D2F8C01018BF203B21F02A
:10609000FF0141F0A001B3F1005FC2F8C0100CD3C2
:1060A0001C4D1D4E296843F00103C2F898100131C0
:1060B000C2F89C60C2F8A0302960844210D0154814
:1060C000164B0268124923F01F0343F00303C1F883
:1060D0009820C1F89C30124B0132C1F8A030026008
:1060E000BFF35F8F05220A4BC3F894205A6A42F42B
:1060F00080325A62BFF34F8FBFF36F8FBFF34F8F62
:10610000BFF36F8F70BD00BFF40C0020A00E002005
:1061100000ED00E00819002003000020BF0E002061
:10612000E1FFFF3FF8B51446FFF78CFF1F2C27D97E
:106130000027C2062A4D1CBF20F01F0020302A680D
:10614000CB06284B18BF21F01F01FCB2A24219D880
:10615000D3F8C04020F01F0024F47F4444F480743E
:1061600021F01F01C3F8C04040F00300C3F898209D
:1061700041F003010132C3F89C00C3F8A0102A606B
:1061800000201AE0C3F89840D3F89C40D3F8A060F0
:1061900024F01F04A04226F01F0601D1B142EFD027
:1061A000B04201D8A14207D2D3F89840013724F079
:1061B000FF04C3F89840C8E72820BFF35F8F05228B
:1061C000084BC3F894205A6A42F480325A62BFF3F3
:1061D0004F8FBFF36F8FBFF34F8FBFF36F8FF8BD3C
:1061E0000819002000ED00E0BFF34F8F0549064B72
:1061F000CA6802F4E0621343CB60BFF34F8F00BF65
:10620000FDE700BF00ED00E00400FA05054B1A7839
:106210002AB95B78002B14BF0220032070470120AD
:10622000704700BF692500200329F8B598BF124BBD
:1062300005460E468CBF00245C5C032805D8DFE8C9
:1062400000F002080B0E44F002040C4B1F684FB91B
:10625000F8BD44F00804F8E744F02004F5E744F002
:106260008004F2E77B681A68144203D0314628465E
:106270005B6898473F68EAE784BA03083019002052
:1062800038B5104D2B78ABB10F4C23781BB100F013
:1062900053FB00232370002000F072FB0B4C50B125
:1062A00000F078FB0023012120782B70FFF7BCFF62
:1062B0000123237038BD0122054B1A702278054B4B
:1062C0001A70F7E76825002063250020612500206B
:1062D000672500206E25002010B519F043FA064B03
:1062E00004461B781BB1BDE8104019F03FBAFFF718
:1062F000C7FF2046F7E700BF62250020002814BF33
:106300000121FF21074A13780B44137008D0064B74
:106310001B78012B04D9054B1B780BB9FFF7B0BFD5
:10632000704700BF692500206125002067250020F7
:1063300070B519F017FA124E054633789BB900F084
:1063400053FC044620B1284619F010FA204670BDCF
:106350000C4819F079F900F0E1FE0B4B1C6000F0DD
:1063600007FD0A4B186000F033FA1AF0F0FA084BF8
:106370000024186001232846337019F0F7F9E5E787
:10638000642500203019002038190020341900201D
:106390002C19002000292DE9F34114BF0121FF2110
:1063A000254A00F1FF30135C0B4413543AD0234EBE
:1063B0003178012936D9FFF729FF0128044634D85E
:1063C0001F4F19F0CFF93B781BB31E4D2B781BB92B
:1063D00001222A701C4A1370DFF8708098F8003090
:1063E00033B1019000F0A8FA0023019888F800303A
:1063F00019F0BCF9012000F0C3FA19F0B3F92B78B9
:106400002BB1019000F0C6FA002301982B700023F5
:106410003B7019F0ABF93078A04203D02146FFF76A
:1064200003FF347002B0BDE8F0810329F3D10228E4
:10643000F1D11AF090FAEEE76925002061250020DD
:1064400068250020622500206725002063250020A4
:1064500010B5044619F086F9002C14BF0121FF2164
:10646000064A13780B44DBB21370B3FA83F3BDE82A
:106470001040034A5B09137019F078B96C250020AD
:106480006B25002068B519F06DF9094B06461B789D
:10649000012B04D819F06AF90025284668BD054B80
:1064A0001D6800F0ABFA0544304619F05FF9F4E7D7
:1064B000612500203819002038B54160044619F0E4
:1064C00051F905462146044819F0C1F82846BDE8AF
:1064D000384019F04BB900BF30190020054B1B683C
:1064E0005843054B00F5742000F23F20B0FBF3F059
:1064F000704700BF3419002040420F002DE9FF47CC
:10650000EFF3108672B600E000BF19F01BF8002808
:1065100000F09B80704D714F2B7823B10020FFF766
:10652000EDFE00232B70FFF771FE0446002800F0FB
:106530009380841EE4B2012C40F29680FFF766FE41
:106540000128804604D9664B1B780BB91AF0FDF977
:10655000644CDFF8B0912078DFF8ACA140450AD058
:10656000002389F800309AF8003013B94146FFF74C
:106570005BFE84F8008099F800303BB12378022B51
:1065800004D1002389F8003023F07EFCB8F1010F1C
:106590000FD9DFF84C8198F8003053B9524B1B7873
:1065A00023B900F0C3F90122504B1A70012388F877
:1065B0000030207800F00CFA9AF8003013B14C4B00
:1065C0001B78237000E000BF06B962B6EFF31086B7
:1065D00072B6484B1A7852B100221A70444B207898
:1065E0001B78984203D101212170FFF71DFE384628
:1065F00000F034FB18F0B1FF804600288CD1384FF2
:1066000089F800003B789BB1DFF8E0908AF8000041
:1066100099F800301BB100F08FF989F80080002054
:1066200000F0AEF900284ED000F0B4F900233B7022
:106630002B7823B10020FFF761FE00232B7000218F
:106640002078FFF7F1FD0023237000E000BF06B9BA
:1066500062B604B0BDE8F0872B78002B3FF46EAF34
:10666000FFF74CFE2C7069E7002003A900F03AFB0D
:10667000044600287FF462AF1F4B039A1B689A42BE
:1066800005D80120FFF73AFE01232B7056E71B4B7C
:10669000D3F8008000F0B2F9039B80449845F0D213
:1066A00000F0C2F900280CBF00230423039943F033
:1066B0000203CDE9004338462346114AA1EB080105
:1066C0001AF04AF93AE7012000F082F906B962B6F9
:1066D000EFF3108672B6A2E76D2500200C1900209A
:1066E00068250020612500206C25002063250020FE
:1066F0006E250020662500202C1900203819002066
:10670000D96201086B2500206725002010B519F01B
:1067100029F80022044B1C781A7019F027F800F0B1
:106720000FFC2043C0B210BD6525002010B5094BF9
:106730001B786BB1084C237853B100F02BF9002380
:10674000064A237013700123054A1370054A13701B
:1067500010BD00BF612500206725002068250020AE
:106760006525002066250020034B1B7813B101220C
:10677000024B1A70704700BF61250020672500207A
:1067800073B5114E04463378834212D000238DF83E
:10679000043080B102238DF8053001A8FDF7A8F977
:1067A0000A4D402054B1FFF799FE2B68181A286053
:1067B000347002B070BD8DF80500EEE7FFF78EFE75
:1067C0002B681844F3E700BFD80C002040190020C4
:1067D00073B5002401A88DF80440FDF723FA204684
:1067E000FFF7CEFF4FF480102C4B2D491A6F02F0AB
:1067F00007020A602B49D3F8203148664FF4003075
:10680000486601F598318969032A01F002013DD0FB
:1068100003F00703981E434243412348234D03706E
:1068200061B31E4A3BB9D2F8003103F00303591E8D
:106830004B424B410370D2F8003103F00303022BAB
:1068400026D0032B27D0012B18D1FCF76BF8A8B169
:10685000174B411EDC680023024608461946C4F364
:106860000B04144E013404EB8404E4FB060118F01D
:106870002FFBFFF733FE2B68184428601F20FFF71B
:106880002DFE2B681844286002B070BD0123C4E7B8
:10689000FCF7A4F8DBE718F0CFFED8E70080005043
:1068A0003C19002000900050712500204019002064
:1068B00000C0015040420F00074B1A7852B100222D
:1068C0001A70064A136F23F0070343F0010313679E
:1068D000FCF712B8704700BF6F2500200080005001
:1068E00008B50E4B1B788BB102201AF090F868B1F6
:1068F00000F02AFA50B10A4B9A6DD20307D5DB6D2E
:106900009B0704D54FF48032064B9A6208BD0122E2
:10691000054B1A70FFF7B4FAF4E700BF71250020A9
:106920000040005A0050005A702500200122014BFF
:106930001A7070476F25002038B50D4B1B7873B166
:106940000C4C23788BB90C4B0C4D9A6D12F4803F94
:1069500006D0DB6D9B0703D54FF48033AB6238BDA7
:10696000FFF78EFA4FF48033AB6200232370F6E713
:1069700071250020702500200040005A0050005A68
:10698000034B1B780BB1FFF71FBB0120704700BF03
:106990007125002008B518F0F8FE094A0949136F5F
:1069A000096823F007030B431367074B1B781BB1E0
:1069B0004FF48032054B9A62BDE80840FBF79CBF5C
:1069C000008000503C190020712500200060005A12
:1069D00002280AD003280BD001280CD1064A1369DB
:1069E00023F00403136130BF70470020FDF78CB81B
:1069F0000020FDF7A1B8704700ED00E008B5054B99
:106A0000187818B1FFF7AEFA00EBD000024B1B6804
:106A1000184408BD71250020401900200122014BB7
:106A20001A70704771250020014B1878704700BF1D
:106A30007125002010B500F0E7FA0A4C0A4B1968DE
:106A40002368C31A01B10BB9206010BD4A699A428C
:106A50003ABF9B1A0022D21A4A6128BF00238968D4
:106A6000F0E700BF4419002050190020C38870B51A
:106A700004460D463BB9FFF705FD8542064602D2A6
:106A800019F04AFF35460F4965610B68ABB90C60D8
:106A9000A36011E0AD1A9A68184665612AB11346E1
:106AA0005A69AA42F6D950B11A4613468460A360C7
:106AB00013B15969491B596170BD0020F0E70C60A2
:106AC000F5E700BF5019002038B5134D2B685B69FE
:106AD00093B1124A022014681C4419F08FFF20461B
:106AE00000F0C6FA00230E492A680B70D088800790
:106AF00009D501230B7038BD022019F07FFF022059
:106B000000F004FBEEE79268002AF4D050690344D9
:106B1000012BEBD9EFE700BF5019002044190020EA
:106B200073250020F8B516469DF81C20BDF820708E
:106B30000271069A0446026000220D46C0E903363F
:106B40008260C780C6B900F05FFA2844A0613DB9F1
:106B5000E368656113B120462168984756B1354610
:106B6000062F0DD1104A2846936A43F0080393621A
:106B700000F052FA0020F8BD00F046FA3044E5E794
:106B800018F0F0FD0646FFF755FF29462046FFF7AF
:106B90006DFF064B1B68A34201D1FFF795FF3046FE
:106BA00018F0E4FDE6E700BF0040005A501900204D
:106BB00000220C490B687BB183420AD183687AB109
:106BC000936083681BB15A6941690A445A61002085
:106BD00070471A469B68EEE70028EFD00220704706
:106BE0000B60EEE75019002070B518F0C2FD144E8E
:106BF00005463478FCB9134B1C60134B1C60134BD7
:106C00001C8000F0B9F9012019F0F8FE19F02AFFF4
:106C10000F4B0246186020B9284618F0B0FD23201B
:106C200070BD234640F2E7310A4818F051F90A4B8B
:106C3000186001233370284618F0A1FD0020EFE70B
:106C40007225002050190020441900200C25002036
:106C50004C19002018FCFFFF481900202DE9F041D5
:106C60000546F8B118F07EFD0F4F0646FFF7E2FE2D
:106C70002846D7F80080FFF79BFF044628B130462E
:106C800018F074FD2046BDE8F081A8453B6803D1AB
:106C900023B1FFF719FFF2E7002BF0D1022000F03B
:106CA0001FFAECE72224EDE75019002038B50C4616
:106CB000054698B191B100230B7018F05AFD0121DF
:106CC000074B1B680BB122781AB118F058FD002051
:106CD00038BDAB4214BF9B682170F3E72220F7E771
:106CE000501900202DE9F0410746884618F041FD73
:106CF00000260546124B1C6824B9284618F03FFDB3
:106D00001B2016E063691E44E388BB4215D100F0E6
:106D10007BF90C4C2368C01AB0420CD200F074F915
:106D200022683244121A2846C8F8002018F027FDBD
:106D30000020BDE8F0810022F5E7A468DCE700BF91
:106D4000501900204419002008B5074B187848B1A5
:106D500019F042FE054B1B689B69C01A02288CBFC4
:106D60000020012008BD00BF73250020501900201D
:106D7000014B1868704700BF4C1900200C4B70B5D0
:106D80001B680D46834211D340F2E73100248C4644
:106D90002146084B4FF47A721E680023E0FB06C1BF
:106DA000604618F095F82860204670BD2120FCE769
:106DB000481900204C1900200F4B10B51A689AB1E1
:106DC0004FF47A71531E1342A0FB01010ED1B2FAA7
:106DD00082F2C2F11F04531CD243E04001FA03F3D4
:106DE000184321FA02F20243104610BD002318F0A6
:106DF0006FF80246F8E700BF4C190020C2072DE9E2
:106E0000F04704460BD54B4A138801339BB21380DD
:106E1000FFF710FE484B1B680BB1FFF755FEA307A9
:106E200040F1858018F0A5FC4FF0000980464D46E2
:106E3000FFF700FE4F46404E34680CB163698BB1DA
:106E400000223E4B012D1A7003D119F0020F18BF1A
:106E50001D70002C5BD0FFF737FE4046BDE8F047C1
:106E600018F08DBC23461A792179914288BF1C46BF
:106E70009B6813B15A69002AF5D0404618F07FFC90
:106E8000D4F81090B9F1000F45D000F0BDF8A26918
:106E9000A0EB02084FEAE873C14577EB03033BDA46
:106EA00023691344A36101232269CAB1C3B9A38B27
:106EB000B9EB080833B1E28B13449BB2B3F57A7F88
:106EC0001CD2E38318F055FC814641462046FFF76B
:106ED000CDFDA369226948461344A36118F04FFC15
:106EE000E368B4F80690013513B12046216898474D
:106EF00018F03FFC8046FFF79DFD9DE7A3F57A73F0
:106F0000E383A36918F1FF38013BA361DAE70220AC
:106F100000F0E6F8A1E7C84618F02BFC82462046B0
:106F2000FFF746FE504618F02AFC0023BCE7BDE8F8
:106F3000F08700BF0C250020501900207425002088
:106F400010B518F016FC034B1C7818F018FC2046FE
:106F500010BD00BF74250020014B1870704700BFA2
:106F600074250020034B5A68D20702D5DA69002A3B
:106F7000F9D1704700800A5030B501250024042360
:106F800087B029463E208DF80430CDE903448DF8C2
:106F90000040ADF808508DF80A400594FCF7DCF885
:106FA0006846FDF79DF801AB204602A90493ADF8B1
:106FB0000840FDF7A5F820460F21FDF7C9F80F217D
:106FC0002046FDF7CBF8FDF76BF8FFF7CBFF082263
:106FD0000B4B9C610B4BC3F888219A603B202946E0
:106FE000FCF7BAF82146284640F60152FCF77AFF32
:106FF0004FF496722146284618F0E8FB07B030BDE2
:1070000000800A5000E100E008B5FFF7ABFF014B3C
:10701000986908BD00800A5038B5044618F0A2FBF4
:107020000546FFF79FFF104B022C9A698CBFA418EE
:10703000D41C2046FEF732FFB4F1FF3F2CBF22469E
:10704000621E01210020FDF7A7F8284618F08EFBEC
:10705000064A137833B104498B6C43F002038B6406
:107060000023137038BD00BF00800A50D90C0020E7
:10707000F8B5044618F076FBFFF774FF164B074689
:107080009D6919F0B7FC06460020FDF76DF88307EF
:1070900004D4731B032B01D8AE420FD10021631B14
:1070A000022B98BFEC1C0846B4F1FF3F2CBF2246D0
:1070B000621EFDF771F8022019F0A0FC384618F0A6
:1070C00055FB064A137833B103498B6C43F0010337
:1070D0008B6400231370F8BD00800A50DA0C002086
:1070E000830700F0010109D50122064B41F002019E
:1070F0001A70054A936C23F0010393640020FDF796
:1071000027B800BFDA0C002000800A50830742BF76
:107110000222014B1A64704700900A500A4B10B5C6
:10712000D3F8403203F00303013B012B0BD818F0D6
:1071300019FB044601210220FFF72CF92046BDE887
:10714000104018F013BB10BD0080005010B504466D
:10715000FBF7D2FB0C4BA0F57A729A4212D84FF48F
:107160007A73B0FBF3F05C43084BB3FBF0F0B4FB75
:10717000F0F0022806D9BDE810400323B0FBF3F07D
:10718000FAF7F6BF10BD00BFFFC99A3B40420F009F
:10719000024A0349034800F05BBD00BF88BA0308F8
:1071A000D4BA0308ACBA03080A4619B1024B00214D
:1071B0001B681847704700BF080B00200E4B0340A8
:1071C000B3F1607F06D1B1F5885F14BF6FF0860020
:1071D00000207047B3F1707F0BD101F4E043B3F5A9
:1071E000005F06D111F4E06F0CBF6FF08600002045
:1071F00070476FF0860070470000C07F8A42F8B584
:1072000007460D4600F021819B4822F0FF01814294
:1072100010D09A4C22F4FF7323F00103A34209D04B
:10722000974B994206D0974922F47F7323F00303CA
:107230008B4223D125F0FF01814210D08F4825F4E5
:10724000FF7323F00103834209D08D4B994206D08E
:107250008C4925F47F7323F003038B420ED115F084
:10726000FF030BD0884943F000738B4206D16A407C
:1072700032F0FF030CBF01200020F8BD05F0FE43F3
:10728000B3F1A06F17D102F0FE43B3F1A06F40F04D
:10729000DE8082EA050333F47E1340F0D88015F4D3
:1072A0000040EAD0C5F30540C2F3054290428CBFCE
:1072B00000200120E1E7B3F1407F40F0B38002F00D
:1072C000FE43B3F1407F40F0C28082EA050333F40D
:1072D0007E1640F0BC8039462846FFF76FFF002835
:1072E00040F0B580694C12F47C1C04EA020438D0EA
:1072F000B4F1607FC2F3054C7AD16549D3B243F053
:1073000000738B4278D003F17E410439012975D98D
:1073100060498B4276D001318B4275D001318B426E
:1073200074D001318B426BD001318B426AD0013174
:107330008B4269D003318B4264D001318B4263D0E0
:1073400001318B4262D001318B4208BF402615F4D7
:107350007C1FC5F305435BD1664514BF00200120A7
:107360008BE7B4F1607F2BD14949D3B243F000736E
:107370008B426ED003F17E41043901296CD9454915
:107380008B426FD001318B426FD001318B426FD075
:1073900001318B4263D001318B4263D001318B428A
:1073A00063D003318B425DD001318B425DD001311E
:1073B0008B425DD001318B4208BF4FF0400C9CE7FF
:1073C000B4F1707FC3D107F4E043B3F5005F05D19A
:1073D0004FF0010CC7F302230CFA03FC07F4E0435F
:1073E000B3F5005FB3D10126C7F302239E40AEE799
:1073F000B4F1707FABD1F1E71026A8E71426A6E719
:107400004026A4E71C26A2E72026A0E730269EE718
:1074100012F47C1F01D1B34217D02A047FF52DAF9F
:10742000634544E7B3F1106F11D125F01F6323F4D6
:10743000702363B902F0FE43B3F1106F07D1164811
:10744000104040F01060A84287E7012015E70020B7
:1074500013E74FF0100C50E74FF0140C4DE74FF0CE
:10746000400C4AE74FF01C0C47E74FF0200C44E774
:107470004FF0300C41E700BF001300060002000689
:107480000009000600040006FF0000020000C07FA3
:1074900003000002080000020000FFF62DE9F84397
:1074A0001746002288461C4600F0BCFA0546002814
:1074B00059D1D8F80060B6F8009009F4E043B3F56C
:1074C000804FF36808BF27F0010737EA030342D172
:1074D000002C48D02E4A24F0FF03934211D02D49AE
:1074E00024F4FF7222F001028A420AD02A4A93420F
:1074F00007D024F47F7222F0030201F500718A4262
:1075000034D114F0FF0231D021498B4211D02148EF
:1075100024F4FF7121F0010181420AD01E498B42FF
:1075200007D024F47F7323F00303A1F5A0618B42FD
:1075300004D142F00073194A93421ED022464846B5
:107540003169FFF75BFE074668B922464846716914
:10755000FFF754FED0B96FF0840500233046C8F819
:1075600000301AF06CFA2846BDE8F88304F0FE43B8
:10757000B3F1407F04D12304E0D56FF08605ECE73A
:10758000B3F1A06FF7D0054B9C42D6E73D46EAE742
:10759000001300060002000600090006FF000002BA
:1075A00000F0FE43B3F1407F70B505460E4602D0B1
:1075B0006FF0860070BDFFF701FE0028FAD115F4C8
:1075C0007C1F05D0C5F30543032B13700DD86BE06A
:1075D0004D4B2B40B3F1607F69D14C49EBB243F086
:1075E00000738B4231D110231370474C2C40B4F1FF
:1075F000607F6AD14549EAB242F000728A4279D08E
:1076000002F17E410439012976D941498A4275D077
:1076100001318A4274D001318A4273D001318A42E9
:1076200011D001318A4269D001318A4268D00331D8
:107630008A4263D001318A4262D001318A4261D0EC
:1076400001318A42B4D140214DE003F17E41043939
:10765000012901D81423C7E72D498B4201D11C23EE
:10766000C2E72C498B4201D12023BDE72A498B4236
:1076700001D13023B8E729498B4201D14023B3E738
:1076800027498B42EBD001318B42EDD003318B4245
:10769000E5D001318B42E7D001318B42E9D0013195
:1076A0008B42EBD0002313706FF0850082E7B3F1BB
:1076B000707FF7D101F4E043B3F5005FF2D101230D
:1076C000C1F302218B40DBB27EE7B4F1707F7FF41F
:1076D0006FAF06F4E042B2F5005F7FF469AF0121BD
:1076E000C6F3022291408B423FF662AF202B7FF619
:1076F00061AFD9E71021F6E71421F4E71C21F2E786
:107700002021F0E73021EEE70000C07F03000002F7
:1077100008000002090000020A0000020B0000023B
:107720000C00000237B50C4D0C462B78DB070FD54B
:1077300000230A460193014601AB281D18F08CFC7A
:1077400020B9019BA34218BF6FF0930003B030BD76
:107750006FF08800FAE700BF541900202DE9F04FC0
:1077600000240E4697B00546DDE920B89146214633
:1077700024220DA89A46229F089422F0A5FE06F026
:10778000FE43B3F1806F74D1284633464FF48072C4
:1077900008A9FFF783FE054600283FD1DDF820C089
:1077A0000DAC65460FCD0FC495E80700BCF800305E
:1077B00084E8070003F4E042B2F5005F1BD113F444
:1077C000E06FC3F3022116D02F4826F48072824264
:1077D0000AD000F50070864206D02C48864203D0BD
:1077E000A0F53F40824206D101248C40102C0DD9D7
:1077F0006FF0830512E042F20402934202D1244B5F
:107800009E421ED0234B9E421DD10D24A04533D352
:10781000214609A8FFF786FF0546A8B108981AF087
:107820000EF9064665BB50BB24B12246584609A94D
:1078300022F023FE3B6823443B60304617B0BDE88E
:10784000F08F0C24E2E70024A8EB040305930BEB74
:107850000403CDE903A3CDE90149089909AB0093DD
:1078600006973346D1E909120DA819F0A8FF05467D
:10787000D4E76FF08605D1E76FF08905CEE70546BE
:1078800000232E463B60D8E70010C00400FF4004F0
:10789000000180040013C00408B500F06DF8084B27
:1078A0000C211A78064812F0060F1CBF0022C3E90B
:1078B0000122FFF779FCBDE8084019F033BE00BF94
:1078C0005419002038B50F4D2B7813F0010213D155
:1078D000C5E90122022262F342032B7000F040F856
:1078E000044658B919F015FE044638B92B7843F010
:1078F00001032B70204638BD0024FBE7FFF7CCFFC7
:10790000F8E700BF5419002000F100420332022AB8
:1079100038B504460D4609D82C21104B01FB023323
:107920009A68824217D100202B6038BD01211AF0DD
:1079300039F868B1094B9A689442F4D05A6B944272
:1079400004D01A6E944206D15833ECE72C33EAE7A0
:107950006FF08700E9E76FF08B00E6E76019002021
:10796000044A002092F8843043F0010382F8843006
:10797000704700BF6019002070B50B4C00252646EB
:10798000042120461AF01EF80135204619F03EFA6F
:10799000032D04F12C04F3D196F884306FF3000327
:1079A00086F8843070BD00BF60190020F8B51B4C0C
:1079B000064694F884300F46DB0729D50025234678
:1079C000294693F820001A46B8B125B91A7912B1A0
:1079D000022808BF1D460131032903F12C03F0D111
:1079E00015B96FF08C0015E00421284619F0EAFF64
:1079F00098B9284619F00AFA2A46094B141BA41014
:107A00005C4304F10044033C346000203A6004E02D
:107A10006FF0880000233B603360F8BD60190020E0
:107A2000A38B2EBA2DE9FF4100230B60384B804613
:107A300093F884300D46DC07164666D5FFF764FFE1
:107A40000446A0B92EB9286804B0BDE8F04119F089
:107A5000E3BF012E04D00024204604B0BDE8F0812D
:107A60000521286804B0BDE8F04119F0ABBF10F162
:107A70008C0FF1D1294601A8FFF798FF0446002892
:107A8000EAD101232F68CDE90200C7F80880384603
:107A90007B6003AA02A91AF07DF8044628B9DDE943
:107AA0000212384619F062F90446DDE902011AF0C3
:107AB00067F82CB90221384619F084FF044660B1FA
:107AC0000421286819F07EFF286819F09FF914F145
:107AD0008C0F08BF6FF08704BEE72868C368D9041D
